:020000040800F2
:1000000098980020790200086B0C0008B1050008E0
:10001000690C0008BD04000815110008000000006C
:10002000000000000000000000000000C101000806
:10003000CD0400080000000015020008610F000850
:10004000930200089302000893020008930200083C
:10005000930200089302000893020008930200082C
:10006000930200089302000893020008930200081C
:10007000930200089302000893020008930200080C
:1000800093020008930200089302000893020008FC
:1000900093020008930200089302000893020008EC
:1000A00093020008930200089302000893020008DC
:1000B00093020008930200089302000893020008CC
:1000C00093020008930200089302000893020008BC
:1000D00093020008930200089302000893020008AC
:1000E000930200089302000893020008930200089C
:1000F000930200089302000893020008930200088C
:10010000930200089302000893020008930200087B
:10011000930200089302000893020008930200086B
:10012000930200089302000893020008930200085B
:10013000930200089302000893020008930200084B
:10014000930200089302000893020008930200083B
:10015000930200089302000893020008930200082B
:10016000930200089302000893020008930200081B
:10017000930200089302000893020008930200080B
:1001800093020008930200089302000893020008FB
:1001900093020008930200089302000893020008EB
:1001A000550A000893020008C1040008DFF80CD0CB
:1001B00000F0AAF800480047D11C000898980020D9
:1001C0002A4B19680868B0E8F04F80F30988BFF33C
:1001D0006F8F4FF0000080F311887047000000001F
:1001E00006480068006880F3088862B661B6BFF30D
:1001F0004F8FBFF36F8F00DF00BF00BF08ED00E03F
:10020000DFF80C00016841F470010160704700BF25
:1002100088ED00E0EFF30980BFF36F8F134B1A688E
:100220001EF0100F08BF20ED108A20E9F04F10607B
:1002300008B44FF0500080F31188BFF34F8FBFF325
:100240006F8F02F05FFD4FF0000080F3118808BC53
:1002500019680868B0E8F04F1EF0100F08BFB0EC46
:10026000108A80F30988BFF36F8F70473400002035
:10027000EFF30580704700000648804706480047B6
:10028000FEE7FEE7FEE7FEE7FEE7FEE7FEE7FEE746
:10029000FEE7FEE7750F0008AD01000810B5431A30
:1002A000934209D28318881803E010F8011D03F85F
:1002B000011D521EF9D210BD40EA01039B0703D075
:1002C00009E008C9121F08C0042AFAD203E011F895
:1002D000013B00F8013B521EF9D210BD30B50B4670
:1002E000014600202022012409E021FA02F59D4266
:1002F00005D303FA02F5491B04FA02F52844151E3A
:10030000A2F10102F1DC30BD064C074D06E0E068C9
:1003100040F0010394E8070098471034AC42F6D34C
:10032000FFF748FF54830008748300081CB502F0EF
:10033000D9F91C490420CDE90001002380221AA12B
:100340001C4803F08BF8012802D11BA000F09EFF8F
:1003500014490320091DCDE90001002380221EA1BC
:10036000204803F07BF8012802D11FA000F08EFF87
:100370000C4902200831CDE900018202002322A1AC
:10038000244803F06BF8012802D123A000F07EFF7F
:100390000448001F006802F025FBBDE81C4002F085
:1003A000DDB900009C0000204D61696E5F546173EF
:1003B0006B000000E10B0008206372656174204D42
:1003C00061696E5F5461736B2073756363657373EA
:1003D000A3A10D0A000000005469636B5F546173B0
:1003E0006B000000011000082063726561742054E6
:1003F00069636B5F5461736B2073756363657373BB
:10040000A3A10D0A000000004755495F5461736BBA
:1004100000000000A5050008206372656174204794
:1004200055495F5461736B2073756363657373A380
:10043000A10D0A0038B51E480024016841F00101F1
:1004400001601B480838016841F07C0101604FF0F1
:10045000204541F65910C5F840011648C5F8480135
:10046000234622460121002000F0E2FC4FF4FA70FE
:1004700011480090401E0090FCD100231A46022132
:10048000184600F0D5FC002308220321184600F08E
:10049000CFFC44F0210040F40073002204211046F8
:1004A00000F0C6FC40F2B450C5F8540138BD00005D
:1004B0003838024061551101A0252600FEE70000F2
:1004C000014902208860704700B002407047F0B5D3
:1004D000002201274FF0030C0B6807FA02F52B40AE
:1004E000AB422CD1066853000CFA03F4A643066015
:1004F0000E79D0F800E09E4046EA0E0606600E79BE
:10050000012E01D0022E12D18668A64386604E7954
:10051000D0F808E09E4046EA0E0686604668AE4384
:10052000466045688E799640B6B235434560C568E9
:10053000A543C560CC799C40C3681C43C460521C71
:10054000102AC9D3F0BD4B07DB0E9A40C90810B57D
:1005500000EB8100016A0F249C40A1430162016A03
:100560001143016210BD4183704701837047000051
:10057000094A1268002A18BF0020084A52F82030A1
:10058000002BB8BF7047064B43F820104FF0FF31E7
:1005900042F8201070470000D8000020F40000202E
:1005A000DC0000204FF47A74204602F0E1F9FBE70A
:1005B000FEE7000008B500900548018BC08A491E7F
:1005C0008BB2401E82B20021084600F0CFF908BD70
:1005D0006494002038B5049C009400F0C7F938BD3D
:1005E00030B50C4CA4F12003A0711D465875A988A4
:1005F0008AB2298889B210B1012803D004E0DA82D6
:10060000198301E0D9821A83D88A2080188B6080F0
:1006100030BD0000849400202DE9FE4F0026A2EB9F
:10062000000882465F1A701E35468946B8F1000FF1
:1006300002DD4FF0010102E003D14FF00001019112
:1006400002E0C8F100080190002F02DD4FF0010028
:1006500002E003D14FF00000009002E0C7F1000774
:1006600000904046B84501DD044600E03C46601C71
:100670004FF0000B029015E01FFA89F11FFA8AF083
:1006800000F015F846443D44A64202DD0199361BB0
:100690008A44A54202DD00992D1B89440BF101001B
:1006A0001FFA80FB02998B45E6DDBDE8FE8F4FF017
:1006B0007F4200F0B1B92DE9F0411C4615460E46C7
:1006C00007460B46FFF7A8FF3A4623463146104639
:1006D000FFF7A2FF23462A4619463846FFF79CFF3C
:1006E0002A4623463146BDE8F0411046FFF794BF45
:1006F0002DE9FC5F80460024154603200F46A0EB41
:10070000450649E0781B81B208EB040A01901FFA04
:100710008AF0FFF7CCFF381B81B208EB0509009087
:100720001FFA89F0FFF7C3FF07EB040B1FFA8BF1E9
:100730001FFA89F0FFF7BBFF07EB05091FFA89F1E4
:100740001FFA8AF0FFF7B3FFA8EB040A1FFA89F13A
:100750001FFA8AF0FFF7ABFFA8EB05091FFA8BF130
:100760001FFA89F0FFF7A3FF019881B21FFA8AF000
:10077000FFF79DFF009881B21FFA89F0FFF797FFFE
:10078000641C002E03DA06EB8406B61D04E0601B31
:1007900006EB80066D1E0A36AC42B3DDBDE8FC9F59
:1007A00000F03AB900F01F01074A084BC0F3451C9E
:1007B000C0F3C42013F80C30105C515C00EB032034
:1007C00000EB014070470000F4800008148100082D
:1007D0002DE9F84F82461F460E468B46580700D03B
:1007E000012000EBD700790810FB01F0203AC0B2DD
:1007F00002F0FF090025009045E00C2F10D0102FCB
:1008000012D0182F14D0202F40D1214901EBC9104C
:100810004FF00008445D200610D54FF07F4211E0F4
:1008200009EB49001B4906E01B4901EB0910EFE702
:100830001A4909EBC90001EB8000E9E70A9828B9D9
:100840004FF0FF3231465046FFF7AAFF6006761C94
:10085000040EB6B2B6F5167F18D2A6EB0B00B8425E
:1008600008D10AF101001FFA80FA5E46BAF5806FDE
:100870000CD206E008F1010000F0FF08B8F1080F03
:10088000C9D36D1CEDB200988542B6D3BDE8F88F90
:100890005451000894390008083E0008F843000845
:1008A0002DE9F84F044600F0FF0810190D46DDE968
:1008B0000A761FFA80FA58191FFA80F94FF0000BD8
:1008C00011E0544502D3E819444685B24D450FD294
:1008D0003B4629462046CDF800B0FFF779FF04EBF0
:1008E000570084B2761C3278A2F120005E28E8D945
:1008F000BDE8F88FF0B51C4C002307462568184664
:100900001E4625F08055256041F6FF7501E05B1C11
:100910009BB2D4F800C05FEA8C0C01D5AB42F6D391
:10092000AB4201D10120F0BD46EA871646EA0171CB
:100930000D4E88363160311D0E6826F440360E604B
:100940000E6846EA02420A60216841F08051216047
:1009500001E05B1C9BB22168890001D4AB42F8D353
:10096000AB42E0D10220F0BD003802402DE9F04357
:10097000254EDDF81C900024757D0DB1054606E07E
:1009800077680D46B91A1A463B1A491E5B1E306835
:1009900096F814C0DFF87480521B871A58F82CC0E0
:1009A000F66900FB015006FB00C519487F1EBFB267
:1009B000066846F4000606601648066826F001063A
:1009C00006604FF440360660022646630764C5633E
:1009D000591AF30303EB0242491C11434164C0F866
:1009E0003890016841F0010101605A0102E0641C85
:1009F000944202D241688907F9D5816841F0020129
:100A00008160BDE8F083000064940020AC00002009
:100A10003038024000B00240F0B50C4F94B23D4671
:100A2000DFF82CC02B68EA692D7D7E7D5CF82550AF
:100A300026B103FB01004243AC52F0BD7E68301A80
:100A4000401E03FB001050432C52F0BD6494002064
:100A5000AC00002070B51B49012008601A4D00242D
:100A600055F82400002828DB1749174A08310C32B2
:100A700051F8241052F824205143134A103252F8EE
:100A800024205043114A52F8242001FB00210E4A31
:100A9000143252F82400836A0023836252F824003F
:100AA0008162012000F096F855F824102046FFF7E7
:100AB0005FFD4FF0FF3045F82400641C012CCFDBB4
:100AC00070BD00003C680140BC000020D4800008DC
:100AD000F0B53E4F059CCE18D7F800C01519CCF3E1
:100AE0000B4C6644D7F800C0CCF30B4C614401F1C9
:100AF000010141EA064190B3344EFC363160396859
:100B0000C1F30A0129443D68C5F30A052A44521C71
:100B100042EA0142311D0A602D49096811F00701BE
:100B20004BD001294BD005294BD0062949D00221B1
:100B30004B43274AD91C1C3241EA03411160111D65
:100B40000C6098B322481038016841F0010101603F
:100B50001E481830016841F001010160F0BDFFE757
:100B60001A4E7C3631603968C1F30A0129443D6868
:100B7000C5F30A052A44521C42EA0142311D0A60AB
:100B800013498039096811F0070110D0012910D0EC
:100B9000052910D006290ED002214B430C4AD91C3E
:100BA000643A41EA03411160111DC9E70BE00421D9
:100BB000F3E70321F1E70121EFE70421B8E703217F
:100BC000B6E70121B4E701487830BDE70C68014081
:100BD0001469014001490860704700002468014021
:100BE0001CB54FF47A794FF478444FF4C8754FF43C
:100BF000FA7A4FF4AF764FF496774FF020084846D4
:100C000001F0B6FE012000F0A5F92246C8210A2015
:100C1000FFF702FF2B46524600211846FFF7FCFC67
:100C2000642300211A4608460094FFF7D3FCC8212C
:100C300064220846FFF75CFD3246334638463946A3
:100C4000FFF739FD04A1CDE900811823F0225021DE
:100C50002846FFF725FED2E74C544443204C43443A
:100C60002054455354000000FEE7704730B50F2371
:100C7000C27801780125FAB1144A126801F1E02125
:100C800002F4E062C2F5E062C2F30722C2F104049A
:100C9000D3404278A24084781C401443220181F85A
:100CA0000024007800F01F018D404009800000F111
:100CB000E020C0F8005130BD01F01F008540480918
:100CC000800000F1E020C0F8805130BD0CED00E064
:100CD0000249084302490860704700000000FA0515
:100CE0000CED00E0044A0029116801D0014300E046
:100CF000814311607047000030380240044A0029E7
:100D0000116801D0014300E0814311607047000089
:100D100040380240044A0029116801D0014300E034
:100D200081431160704700004438024010B5012132
:100D30000846FFF7D7FF01210220FFF7D3FF01216B
:100D40000420FFF7CFFF01210820FFF7CBFF01218F
:100D50001020FFF7C7FF01212020FFF7C3FF01216B
:100D60004020FFF7BFFF01218020FFF7BBFF0121DB
:100D70000802FFF7B7FF01210803FFF7B3FF0121C6
:100D80001020FFF7C7FF01214804FFF7B7FF01213B
:100D90008803FFF7BFFF012010BD000070B5204B96
:100DA0001968204C11F00C0104D01F4E042903D007
:100DB000082903D004601BE0066019E0184A121FDE
:100DC0001168C1F38055116801F03F0115B1B6FB00
:100DD000F1F101E0B4FBF1F114681268C4F3881476
:100DE0006143C2F30142521C5200B1FBF2F10160B7
:100DF00019680F2202EA11110C4A545C0168E140A3
:100E000041601C68072505EA9424145D21FA04F466
:100E100084601B6805EA5333D25CD140C16070BD69
:100E2000083802400024F40040787D0100000020D2
:100E300030B5C0F1040501200024A840084340EA71
:100E4000421040EA43214FF02040C0F850114FF4C7
:100E5000001204E0641C944201D3012030BDD0F89C
:100E600058118906F6D4002030BD0000044A01283C
:100E70004FF02001104601D0FFF775BBFFF775BB9F
:100E8000000402401CB500212E4A00910191106817
:100E900040F4803010604FF4A043106800F400303C
:100EA00001900098401C0090019810B90098984259
:100EB000F3D11068800342D50120019021484030D1
:100EC000016841F0805101601F49086840F44040CA
:100ED00008601C48083003680360036843F400435B
:100EE0000360036843F4A0530360041F174B23609F
:100EF000136843F08073136013689B01FCD50A6884
:100F000042F480320A604A68D203FCD50A6842F48F
:100F100000320A604A689203FCD50D4A40F205711E
:100F20001160016821F003010160016841F00201D4
:100F300001600168C1F381010229FAD11CBD019150
:100F40001CBD00000038024000700040195A4007E4
:100F5000003C02400149087070470000A8000020D2
:100F600010B502F0A7FA012803D0BDE8104001F047
:100F700095BF10BD124810B5016841F470010160C1
:100F80001048016841F0010101600E4A0021083259
:100F9000116002680C4B1A400260031D0B4A1A6074
:100FA000026822F48022026006480C300160FFF7DC
:100FB00069FF03494FF000608039086010BD0000F0
:100FC00088ED00E000380240FFFFF6FE10300024FC
:100FD00010B5094C2078012809D1618807480029FB
:100FE0004FF0010104D0FFF7BEFA0020608010BD71
:100FF000FFF7BBFA0120F9E7A80000200004024037
:10100000642001F0B5FCFFF7E3FFF9E700298189CF
:1010100002D041F4005101E021F400518181704778
:101020000246002012880A4200D00120704710B505
:10103000C1F3421301F01F040121A140012B07D08D
:10104000022B07D01430002A026805D00A4304E0BE
:101050000C30F8E71030F6E78A43026010BD00005C
:101060007FB50446008A0D46C98820F440500143EC
:101070002182A08941F20C618843A9882A89114301
:101080006A8902431143A181A08A20F44071A88992
:101090000843A0826846FFF781FE1A48844202D0C6
:1010A0001948844201D1039800E00298A1890904FB
:1010B00000EBC00101EB0010296801D5490000E0F8
:1010C0008900B0FBF1F06422B0FBF2F109010B09D9
:1010D0006FF018056B4300EB8300A3891D044FF0EC
:1010E000320306D503EBC000B0FBF2F000F00700BE
:1010F00005E003EB0010B0FBF2F000F00F00084336
:1011000020817FBD0010014000140140C1F308019F
:1011100081807047FEE700002DE9F003DFF884C00E
:10112000DCF800C0BCF1000F02D0BDE8F00360475E
:10113000DFF874C01D4EB2F1004F1CD2012AD8BF97
:101140000122012550F8044B5CFA84F7C4F3072808
:10115000C4F3074416F808801CF804403F7804EBF9
:10116000481404EBC7240C806D1C19449542E9DD3A
:10117000BDE8F003704750F8044B5CFA84F5C4F303
:101180000727C4F30744F75D1CF804402D7804EBEF
:10119000471404EBC5240C801944521EEBD1BDE862
:1011A000F0037047FC0000205481000854820008BE
:1011B000084A52FA80F1084BC0F3072CC0F30740ED
:1011C00013F80C30105C097800EB431000EBC120E1
:1011D0007047000054810008548200084FF6FF70E9
:1011E000704700002DE9F003DFF894C0DCF804C07C
:1011F000BCF1000F02D0BDE8F0036047A2F1010C82
:101200000CFB030C01EB82001E491F4E001FB2F1C4
:10121000004F1DD2012AD8BF0122002503FB15C4AF
:10122000521E248805F1010504F01F07C4F3451878
:1012300001EBD42416F808802478CF5D04EB082451
:1012400004EB074440F80449E8D1BDE8F0037047D7
:10125000BCF80040ACEB030C04F01F05C4F34517C9
:1012600001EBD424F75D24784D5D04EB072404EBF7
:10127000054440F80449521EEAD1BDE8F003704726
:10128000FC000020F4800008148100080FB4054B16
:1012900010B503A9044A029800F018F810BC5DF8D4
:1012A00014FB0000851400080401002002E008C8B7
:1012B000121F08C1002AFAD170477047002001E0D0
:1012C00001C1121F002AFBD1704700002DE9FF4F1A
:1012D0008BB09A460F460546002606E025280BD01F
:1012E00052460D9990476D1C761C28780028F5D140
:1012F0000FB03046BDE8F08F0024A04601226049BF
:1013000000E0044315F8013F203B02FA03F00842D5
:10131000F7D128782E2817D115F8010F44F00404CE
:101320002A280ED06FF02F022878A0F13001092969
:101330000AD808EB880102EB410100EB01086D1CA3
:10134000F2E757F8048B6D1C287869283ED006DC3C
:101350000028CDD063280BD0642804D136E0732850
:1013600010D075284BD052460D999047761C85E0D9
:1013700017F8040B8DF8000000208DF80100E946F5
:10138000012003E057F8049B4FF0FF3061074FF056
:10139000000401D40AE0641C44450DDA8442FADBFF
:1013A00019F804100029F6D106E0641C8442FCDB25
:1013B00019F804100029F8D1264404E019F8010BAB
:1013C00052460D999047641EF8D257E001CF4FF076
:1013D0000A0B002802DA40422D2102E0210504D543
:1013E0002B218DF82410012103E0E10705D02021F5
:1013F000F7E70DF1200908910CE00021F9E701CF92
:101400004FF00A0BF9E75946FEF768FF01F1300289
:1014100009F8012D0028F6D1ADEB090000F1200BF1
:10142000600701D44FF00108D84502DDA8EB0B009E
:1014300000E000208046002406E009A85246005D36
:101440000D999047641C761C08988442F5DB04E0F3
:10145000302052460D999047761CB8F10001A8F152
:101460000108F5DC05E019F8010B52460D9990478B
:10147000761CBBF10001ABF1010BF4DC6D1C34E711
:101480000928010070B5074D0446C1B22846FFF790
:101490003DFE80212846FFF7C3FD0028F9D02046F5
:1014A00070BD0000001001401FB5FFF73FFC4FF476
:1014B000A060FFF70DFC25208DF8000001248DF8B9
:1014C00001408DF802408DF803406846FFF7CEFBDF
:1014D00026208DF800008DF801408DF802408DF82F
:1014E00003406846FFF7C2FB00F0C2F84FF4E1305A
:1014F00000900020ADF80400ADF80600ADF808003B
:10150000ADF80C000C200D4CADF80A0069462046E1
:10151000FFF7A6FD012240F225512046FFF787FD87
:1015200001212046FFF772FD00F00AFA00F008F8EA
:1015300004B00120BDE81040FFF798BC0010014046
:10154000F8B545480025016841F080610160434CD1
:101550000015032120604FF4167060601420208174
:1015600061818C21A181E081A02020820C206082F9
:10157000012202214FF4B470FFF7BCF9384B1D6013
:1015800060892189374A064602EB0145401E054322
:10159000334810380560E0893044A689451E31443F
:1015A00002EB01462E432E4D0C3D2E6065686E1EEB
:1015B00000EB060C26888F1902EB074747EA0C0759
:1015C000DFF89CC0ACF1080CCCF80070678A2F449F
:1015D0003844278A401E3744394402EB0141014315
:1015E000181F01601E48002714300760186840F07B
:1015F000010018601D491C48194B086002210A4669
:10160000E161FF219433186015487C300260001DB1
:101610000160001D0760124940F2076088310860D0
:10162000A8B200220090B3B211461046FFF750FA5C
:1016300004F1200021880180A18841802775781E4F
:10164000FEF7B8FF0120FEF7CBFFBDE8F8404FF6EC
:10165000FF70FEF7AFBF00004438024064940020E2
:10166000186801400000FFFF000000C0AC0000202F
:101670002DE9FC5F00258DF8065001248DF8074008
:1016800002208DF805008DF804004FF400786946BB
:10169000A448CDF80080FEF71AFF07220921A148CF
:1016A000FEF751FF022046028DF8040069469D486E
:1016B0000096FEF70CFF07220A219A48FEF743FF27
:1016C0000220DFF864A28DF804004FF0200969467B
:1016D0005046CDF80090FEF7FAFE0722052150464D
:1016E000FEF731FF02208DF804004027694650467E
:1016F0000097FEF7ECFE072206215046FEF723FF77
:1017000002208DF805008DF804008DF806508DF844
:10171000075069468548CDF80080FEF7D8FE0E22B6
:1017200009218248FEF70FFF694680480096FEF7C0
:10173000CEFE0E220A217D48FEF705FF4FF4006B16
:1017400069467A48CDF800B0FEF7C1FE0E220B21A3
:101750007648FEF7F8FE2003009069467348FEF7CE
:10176000B6FE0E220C217148FEF7EDFE6946704868
:101770000097FEF7ACFE0E2206216D48FEF7E3FE51
:101780006003009069466948FEF7A1FE0E220D2114
:101790006648FEF7D8FEA003009069466348FEF74E
:1017A00096FE0E2211466148FEF7CDFE4FF4004A28
:1017B00069465E48CDF800A0FEF789FE0E220F2193
:1017C0005A48FEF7C0FE69465A480094FEF77FFE6D
:1017D0000E2200215748FEF7B6FE0220009069460F
:1017E0005448FEF774FE0E2201215248FEF7ABFE6C
:1017F0000420009069464F48FEF769FE0E22022140
:101800004C48FEF7A0FE69464948CDF800B0FEF707
:101810005EFE0E220B214648FEF795FE102000903A
:1018200069464448FEF753FE0E2204214148FEF764
:101830008AFE69463F48CDF80090FEF748FE0E222A
:1018400005213C48FEF77FFE69463A480097FEF7BF
:101850003EFE0E2206213748FEF775FE80276946B8
:1018600034480097FEF733FE0E2207213148FEF779
:101870006AFE69462F48CDF80080FEF728FE0E224A
:1018800009212C48FEF75FFE69462A480096FEF7BC
:101890001EFE0E220A212748FEF755FE69462448FF
:1018A0000097FEF714FE0E2207212148FEF74BFE9B
:1018B0000096214E69463046FEF709FE0E220A21A7
:1018C0003046FEF740FE1D4E8DF804406946304616
:1018D000CDF80090FEF7FBFD8DF8044069461148F5
:1018E000CDF800A0FEF7F3FD51460E48FEF73DFE91
:1018F0008DF804408DF80750694630460094FEF795
:10190000E6FD01213046FEF730FE022000906946D8
:101910003046FEF7DCFD02213046FEF726FEBDE82C
:10192000FC9F000000000240000C0240001C02402E
:10193000001802400020024000140240000402404F
:101940002DE9FC5F02208DF804008DF805000020D1
:101950008DF806008DF80700012000906946D748F1
:10196000FEF7B5FD0C220021D448FEF7ECFD022065
:1019700000906946D148FEF7AAFD0C220121CF480C
:10198000FEF7E1FD04256946CC480095FEF79FFD72
:101990000C220221C948FEF7D6FD082000906946B6
:1019A000C648FEF794FD0C220321C448FEF7CBFD88
:1019B00010276946C1480097FEF789FD0C220421D3
:1019C000BE48FEF7C0FD4FF020086946BB48CDF881
:1019D0000080FEF77CFD0C220521B848FEF7B3FD20
:1019E0004FF4805B6946B548CDF800B0FEF76FFD57
:1019F0000C221146B148FEF7A6FDE80200906946A8
:101A0000AE48FEF764FD0C220D21AC48FEF79BFDAD
:101A10002E036946A9480096FEF759FD0C220E21B7
:101A2000A648FEF790FD6C036946A4480094FEF7B3
:101A30004EFD0C220F21A148FEF785FD01200090EC
:101A400069469F48FEF743FD0C2200219C48FEF7A3
:101A50007AFD0220009069469948FEF738FD0C2275
:101A600001219748FEF76FFD694695480095FEF7FE
:101A70002EFD0C2202219248FEF765FD6946904832
:101A80000097FEF724FD0C2204218D48FEF75BFD34
:101A900069468B48CDF80080FEF719FD0C22052120
:101AA0008748FEF750FD694686480096FEF70FFD11
:101AB0000C220E218348FEF746FD694681480094BA
:101AC000FEF705FD0C220F217E48FEF73CFD0120AC
:101AD000009069467B48FEF7FAFC0C220021794809
:101AE000FEF731FD0220009069467648FEF7EFFCD4
:101AF0000C2201217348FEF726FD802000906946E4
:101B00007148FEF7E4FC0C2207216F48FEF71BFD2D
:101B1000E71169466C480097FEF7D9FC0C220821B2
:101B20006948FEF710FD4FF4007869466648CDF825
:101B30000080FEF7CCFC0C2209216348FEF703FD70
:101B40004FF4806969466048CDF80090FEF7BFFC0D
:101B50000C220A215C48FEF7F6FC4FF4006A694645
:101B60005948CDF800A0FEF7B2FC0C220B215648D4
:101B7000FEF7E9FC69465448CDF800B0FEF7A7FC33
:101B80000C2211465048FEF7DEFCA010009069467A
:101B90004D48FEF79CFC0C220D214B48FEF7D3FC70
:101BA000694649480096FEF792FC0C220E214648F1
:101BB000FEF7C9FC694644480094FEF788FC0C22F5
:101BC0000F214148FEF7BFFC69463E480097FEF7EB
:101BD0007EFC0C2208213B48FEF7B5FC69463948DB
:101BE000CDF80080FEF773FC0C2209213548FEF782
:101BF000AAFC69463348CDF80090FEF768FC0C2239
:101C00000A213048FEF79FFC0095304D6946284672
:101C1000FEF75DFC0C2202212846FEF794FC012011
:101C2000009069462846FEF752FC0C220021284607
:101C3000FEF789FC69462148CDF800A0FEF747FC75
:101C40000C220B211D48FEF77EFC69461C480094BF
:101C5000FEF73DFC0C220F211948FEF774FC694683
:101C600017480097FEF733FC0C2208211448FEF7B2
:101C70006AFC0820009069462846FEF728FC0C22E2
:101C800003212846FEF75FFC0220009069460E48BB
:101C9000FEF71DFC0C2201210B48FEF754FC01202D
:101CA000009069460848FEF712FC0C220021064805
:101CB000FEF749FCFEF7BEFBBDE8FC9F00140240A6
:101CC00000180240000C02400010024000080240D0
:101CD0001CB5FFF7E9FB00F005FD0BA0FFF7D6FAF6
:101CE00000F03CFD12490120CDE900014202002331
:101CF00010A1144801F0B2FB012802D04FF0FF30D0
:101D00001CBD00F0A9FFFEE70D0A202A2A2A2A2A74
:101D10002A2A2A2A2A20656D77696E2044454D4F6C
:101D2000202A2A2A2A2A2A2A2A2A2A2A200D0A008E
:101D3000980000204170705461736B437265617448
:101D4000650000002D0300082DE9F041184E0F46F4
:101D50000446F5683068001D00F080FC38B9306832
:101D600090F82C1001208840316981433161601C5A
:101D700007D137B13168BDE8F0410E48091D00F0C8
:101D8000A5BC30682C44AC424460316805D2B06BCD
:101D9000BDE8F041091D00F081BC706B091D00F029
:101DA0007DFCB06A844200D2B462BDE8F0810000DC
:101DB00034000020289400202DE9F041054600F071
:101DC00091FC2D4EB068401CB06030682B4F10B1B4
:101DD000706930B32BE03560B068012827D100244A
:101DE00004EB840007EB800000F04AFC641C202C0C
:101DF000F6D3234800F044FC2148143000F040FCA6
:101E00001F48283000F03CFC1D483C3000F038FCF6
:101E10001B48503000F034FC194870631430B06334
:101E200005E03068E96AC06A884200D83560706AA7
:101E30000121401C7062E86A3269814011433161BE
:101E400000EB800007EB8000291D00F03FFC00F054
:101E500085FC706900280CD03068E96AC06A884245
:101E600007D208494FF080500860BFF34F8FBFF38F
:101E70006F8FBDE8F08100003400002058910020F1
:101E8000D893002004ED00E010B500F02BFC0E4CC0
:101E90002068A0B90D4800F0F3FB0C48143000F0A6
:101EA000EFFB0A48E0601430206100220C210A2078
:101EB00001F00AF8206010B105A100F025FDBDE891
:101EC000104000F04BBC0000700000203C9400204B
:101ED000546D72510000000070B5124E124D1CE09E
:101EE00000F008FF306820B1002401F01DFCA4B907
:101EF00001E00124F9E700F0F5FBF068C468201D5B
:101F000000F0ACFBA868401EA8606868401E6860CE
:101F100000F024FC204600F052F868680028DFD169
:101F200070BD0000149400203400002030B4026C16
:101F30000B46002A0BD0C1681144C1604468A1421D
:101F400001D30168C16030BC1846FEF7A7B930BCA8
:101F500070472DE9F041856B174604460026026C58
:101F600082B1C7B1E068FEF799F9E168206C091AFF
:101F7000E1602268914202D26168081AE060022F93
:101F800016D017E02068A8B9606801F01FFB06466C
:101F9000002060600EE0A068FEF780F9216CA06868
:101FA0000844A0606168884204D32068A06001E012
:101FB00005B16D1E6D1CA5633046BDE8F08110B5FE
:101FC0000446006B00F0FCFB2046BDE8104000F02A
:101FD000F7BB000010484FF41041420706D0C01D67
:101FE0000D4920F00700411AC1F510410B4A0023AA
:101FF0000144C2E900030839103A21F007011160D9
:102000004B600B600B1AC0E9001393604FF0004067
:102010005360D060704700000801002020000020BD
:10202000074E4FF08054074DFFF756FF30680128E8
:10203000FAD92C60BFF34F8FBFF36F8FF4E7000026
:102040005891002004ED00E02DE9F047DDE9098416
:102050000E4682466FF00301206B01EB82010844BB
:10206000089D20F007079946780705D040F22B32EB
:1020700019A120A0FFF70AF900202218315C82F88C
:102080003410315C11B1401C1028F6D3002684F8BE
:102090004360202D00D31F25E562C4E91156201DA1
:1020A00000F0F9FA04F1180000F0F5FA2461C5F126
:1020B00020006462A061E66484F850604A4651469C
:1020C000384600F0B5FA2060B8F1000F01D0C8F82A
:1020D0000040BDE8F08700002E2E5C2E2E5C46727C
:1020E000656552544F535C7372635C7461736B73B8
:1020F0002E6300004572726F723A25732C25640DB1
:102100000A00000030B5114900E011460A68824219
:10211000FBD34B685C18844203D140681844486084
:10212000084643681C18944209D1084C103C2468A6
:10213000A24209D052681A4442600A6812680260DA
:10214000814200D0086030BD0460F9E72000002023
:1021500070B5002441600B4D0061914206D8D11A40
:102160008269914206D2011D286907E09A4203D292
:10217000994201D3012403E0011DE86800F08EFAC2
:10218000204670BD7000002010B5044600F0AAFA89
:10219000A06B20B1002400F0E1FA204610BD01241C
:1021A000F9E70000F8B5054614480E46C068C06857
:1021B000C468201D00F052FAE069012817D1A06917
:1021C0002B46411932462046FFF7C2FF78B1002066
:1021D0000346014600902A46204601F093FB30B9A1
:1021E00007494FF4027201F11C00FFF74FF8616AD2
:1021F00001B02046BDE8F040084700007000002014
:102200006038000870B586B02C4E4CE0019800286C
:1022100049DB039C606910B1201D00F01FFA04A87F
:1022200000F0AAF8054601980A283CD2DFE800F041
:102230000505053B273805053B270298A16903469C
:1022400001442A462046FFF783FF00282BD0616A0D
:1022500020468847E069012825D100200090029897
:10226000A169002342181946204601F04BFBD0B962
:1022700040F2213212A119A0FFF708F813E00298EA
:10228000A06128B94FF44E720DA114A0FEF7FEFF15
:10229000A0692B4641191A462046FFF759FF02E074
:1022A000204600F08DFA00231A4601A9306800F09C
:1022B00043FE0028AAD106B070BD000070000020C7
:1022C0002E2E5C2E2E5C4672656552544F535C7305
:1022D00072635C74696D6572732E63004572726F10
:1022E000723A25732C25640D0A000000F8B50D46DE
:1022F000064600F0FFFC684600F03EF804460098F1
:1023000010B101F011FAF8BD1148ADB101690968C9
:10231000D9B10025311B2A46006800F007FB01F007
:1023200003FA0028EFD10B494FF080500860BFF34B
:102330004F8FBFF36F8FF8BDA642EBD801F0F4F9D1
:1023400021463046FFF72EFFF8BD0125E2E70000E9
:102350007000002004ED00E00648416B096829B1D7
:10236000416BC968C9684968816270474FF0FF31A5
:10237000FAE700003400002070B5054601F0A8F827
:10238000064E0446B068844203D200F009F80120EA
:1023900000E0002028602046B46070BD700000207E
:1023A000F8B5184E26E0C068C4680568201D00F026
:1023B00055F9616A20468847E06901281AD1A06969
:1023C0002844A84206D924616060211DF06800F00D
:1023D00065F90FE000200346014600902A4620469A
:1023E00001F090FA30B9084940F2923201F11C0034
:1023F000FEF74CFFF06801680029D4D13169C6E9C5
:102400000310F8BD700000206038000808484068DC
:10241000401C05D040F20F1206A111A0FEF736FFB6
:10242000502080F31188BFF34F8FBFF36F8FFEE70B
:10243000280000202E2E5C2E2E5C467265655254BC
:102440004F535C706F72745C525644535C41524DF2
:102450005F434D34465C706F72742E630000000061
:102460004572726F723A25732C25640D0A000000C4
:10247000084CE068016839B1002139B10020FFF74C
:1024800035FFFFF7BFFEF4E70121F6E7C0680068FB
:10249000F5E70000700000202DE9F041044600F04F
:1024A00021F994F9455004F1240609E0606A48B125
:1024B000304601F0E9F808B100F0FEFA6D1E6DB289
:1024C000002DF3DC4FF0FF3684F8456000F046F94C
:1024D00000F008F994F9445004F1100709E020696C
:1024E00048B1384601F0D0F808B100F0E5FA6D1EA9
:1024F0006DB2002DF3DC84F84460BDE8F04100F0DB
:102500002DB900002DE9F0410546002600F0F2FB50
:10251000324F386808B9FFF75DFDF86805424FD1C2
:10252000002D4DD0083568070BD005F00700C0F12D
:1025300008000544680704D0BF2229A132A0FEF795
:10254000A5FE002D3CD07868854239D8234910314A
:102550000846046801E0214604466068A84202D2A9
:1025600020680028F7D13868B846844228D00E6821
:102570002068086060680836401B10280ED967196B
:10258000780704D0EC2216A11FA0FEF77FFE60683A
:10259000401B786038466560FFF7B4FD6168D8F885
:1025A00004004246401AC8F80400D8F8083098429F
:1025B00000D29060D8F80C0001430020C4E900016B
:1025C00001F0B2F8700705D04FF4967204A10EA086
:1025D000FEF75CFE3046BDE8F081000010000020F0
:1025E0002E2E5C2E2E5C4672656552544F535C70E5
:1025F0006F72745C4D656D4D616E675C686561708E
:102600005F342E63000000004572726F723A2573CA
:102610002C25640D0A0000000449086818B10868F8
:10262000826C521C826408687047000034000020ED
:1026300010B5031F4FF080741C601B1F21F00101B7
:102640001960191F044B0B6014390A60091F6FF0E1
:10265000020244380A6010BD0D240008D0E901329E
:1026600001699A60D0E901235A604A68824201D127
:1026700082684A60002202610868401E0860704754
:1026800000F108014FF0FF32C0E90112C1600161A1
:1026900000210160704700210161704730B50C686E
:1026A000621C02D000F1080202E0026904E01A464E
:1026B00053681D68A542FAD953684B6099608A60D7
:1026C000516008610168491C016030BD42684A6080
:1026D00093688B6093685960916008610168491C38
:1026E00001607047502080F31188BFF34F8FBFF314
:1026F0006F8F09494868401C486001280AD1074883
:10270000006810F0FF0F05D040F2B91204A10FA02D
:10271000FEF7BCBD704700002800002004ED00E07B
:102720002E2E5C2E2E5C4672656552544F535C70A3
:102730006F72745C525644535C41524D5F434D344A
:10274000465C706F72742E63000000004572726FF9
:10275000723A25732C25640D0A00000010B5084C50
:10276000606828B94FF4E07206A111A0FEF78EFD53
:102770006068401E606001D180F3118810BD0000C8
:10278000280000202E2E5C2E2E5C46726565525469
:102790004F535C706F72745C525644535C41524D9F
:1027A0005F434D34465C706F72742E63000000000E
:1027B0004572726F723A25732C25640D0A00000071
:1027C00070B500282AD0164DA0F108046068E968A9
:1027D000084205D14FF4A07212A11CA0FEF756FDCD
:1027E000206828B140F241120EA118A0FEF74EFD5C
:1027F0006068E968084211D02268002A0ED1884337
:10280000606000F077FA6068696808446860204694
:10281000FFF778FCBDE8704000F086BF70BD000097
:10282000100000202E2E5C2E2E5C467265655254E0
:102830004F535C706F72745C4D656D4D616E675C7B
:10284000686561705F342E63000000004572726F2E
:10285000723A25732C25640D0A00000006484FF4D7
:102860007A710068B0FBF1F14FF0E020491E416140
:1028700007210161704700008400002010B5FDF7BA
:10288000F7FC104C10280CD300F1E02090F8F00376
:102890002178884205D24FF440720BA115A0FEF7B3
:1028A000F5FC18480068A16800F4E060884207D988
:1028B000BDE810404FF4447203A10EA0FEF7E6BC41
:1028C00010BD0000280000202E2E5C2E2E5C4672CB
:1028D000656552544F535C706F72745C525644532A
:1028E0005C41524D5F434D34465C706F72742E6391
:1028F000000000004572726F723A25732C25640D3A
:102900000A0000000CED00E010B5074B002253F860
:1029100032401CB1521C0A2AF9D310BD43F83210C0
:1029200003EBC201486010BD0891002070B5154648
:102930000E460446FFF7D6FE94F944100020491CC9
:1029400001D184F8440094F94510491C01D184F860
:102950004500FFF703FFA06B28B92A46314604F172
:10296000240000F0DDF82046BDE87040FFF794BD7C
:1029700010B5040012D00E49096B29B140F2CF42C4
:102980000CA113A0FEF782FC00F0B4F90021204650
:10299000FFF7DAF900F0C8FE002807D110494FF020
:1029A00080500860BFF34F8FBFF36F8F10BD0000E2
:1029B000340000202E2E5C2E2E5C4672656552542B
:1029C0004F535C7372635C7461736B732E630000AE
:1029D0004572726F723A25732C25640D0A0000004F
:1029E00004ED00E070B50446FFF77CFE234D04B90A
:1029F0002C68201DFFF732FE58B9E06A204A00EB30
:102A0000800152F8211021B90121814028698843B1
:102A10002861A06A18B104F11800FFF71FFE686A68
:102A2000401C68622868844207D1211D1548FFF7C1
:102A30004DFE6868401C686007E0A868401EA860FA
:102A40002046FFF7BCFAFFF787FCFFF787FE6869AF
:102A5000002812D0286884420FD1286B28B140F298
:102A6000654209A10FA0FEF711FC12494FF08050FA
:102A70000860BFF34F8FBFF36F8F70BD340000202D
:102A800058910020149400202E2E5C2E2E5C46724D
:102A9000656552544F535C7372635C7461736B73FE
:102AA0002E6300004572726F723A25732C25640DF7
:102AB0000A00000004ED00E001490120C8617047F0
:102AC0003400002070B50D46040005D140F60632F2
:102AD00007A10EA0FEF7DAFB104801682046183166
:102AE000FFF7DCFD2846BDE870400121FFF72CB957
:102AF0002E2E5C2E2E5C4672656552544F535C73CD
:102B000072635C7461736B732E6300004572726F45
:102B1000723A25732C25640D0A0000003400002051
:102B200070B514460E46050005D140F6313209A1B4
:102B30000FA0FEF7ABFB1248016828461831FFF7DB
:102B4000C5FD0CB14FF0FF3621463046BDE8704060
:102B5000FFF7FAB82E2E5C2E2E5C46726565525435
:102B60004F535C7372635C7461736B732E6300000C
:102B70004572726F723A25732C25640D0A000000AD
:102B80003400002070B5040039D01D4DE06A29687A
:102B9000C96A884233D2A069002804DB2868C06A69
:102BA000C0F12000A061E06A164E00EB8000616970
:102BB00006EB800081421FD1201DFFF74FFD012150
:102BC00050B9E06A00EB800256F8222022B92A6947
:102BD00001FA00F082432A612868C06AE0622A692B
:102BE00081401143296100EB800006EB8000211D2C
:102BF000BDE87040FFF76ABD2868C06AE06270BD3A
:102C0000340000205891002010B5040005D140F692
:102C1000C13205A10BA0FEF739FB0E48016A216005
:102C2000C068606010BD00002E2E5C2E2E5C4672C7
:102C3000656552544F535C7372635C7461736B735C
:102C40002E6300004572726F723A25732C25640D55
:102C50000A000000340000201CB517480024CDE90C
:102C600000402346802215A1164800F0F7FB0128FA
:102C700003D100F00BFE01280AD0401C1BD102B08A
:102C800040F28472BDE810400FA116A0FEF7FEBA14
:102C9000502080F31188BFF34F8FBFF36F8F06482A
:102CA0004FF0FF312C38816201214161C460BDE8E1
:102CB0001C4000F069B81CBD6000002049444C4530
:102CC00000000000212000082E2E5C2E2E5C467293
:102CD000656552544F535C7372635C7461736B73BC
:102CE0002E6300004572726F723A25732C25640DB5
:102CF0000A0000000248016B491C01637047000094
:102D00003400002070B5134D286B10B10120E8612C
:102D100070BD0020E86128690F4EB0FA80F0C0F164
:102D20001F0000EB800456F8240028B940F6F62274
:102D30000AA111A0FEF7AAFA06EB840000F108022E
:102D4000416849684160914201D149684160C86861
:102D5000286070BD34000020589100202E2E5C2E7B
:102D60002E5C4672656552544F535C7372635C749B
:102D700061736B732E6300004572726F723A257334
:102D80002C25640D0A0000001CB5304C2068304929
:102D9000884205D140F259122EA139A0FEF776FAE9
:102DA00020682B49491E884205D14FF4AD7229A1F4
:102DB00033A0FEF76BFA364C20780190FF2020708C
:102DC00020788DF800009DF800009DF8001000F0BC
:102DD000F000884205D040F273121EA128A0FEF731
:102DE00055FA9DF800002B4A00F0500010700720A3
:102DF000906007E09068401E90609DF800004000E1
:102E00008DF800009DF800000006F3D4107A00024F
:102E100000F4E0609060019820700C482030016858
:102E200041F470010160016841F070410160FFF7F9
:102E300015FD00205060FDF7E3F91748016841F0E7
:102E400040410160FDF7CCF900201CBD00ED00E021
:102E500071C20F412E2E5C2E2E5C46726565525457
:102E60004F535C706F72745C525644535C41524DC8
:102E70005F434D34465C706F72742E630000000037
:102E80004572726F723A25732C25640D0A0000009A
:102E900000E400E02800002034EF00E010B55020EE
:102EA00080F31188BFF34F8FBFF36F8F00F016FBD5
:102EB00018B104494FF080500860002080F3118859
:102EC00010BD000004ED00E070B50E46050005D110
:102ED0004FF4C4720DA114A0FEF7D8F996B105FB0A
:102EE00006F04830FFF70EFB040009D004F148015A
:102EF00020464EB10160C0E90F56012100F0E2F812
:102F0000204670BD0020ECE70060F4E72E2E5C2E1A
:102F10002E5C4672656552544F535C7372635C71EC
:102F2000756575652E6300004572726F723A257380
:102F30002C25640D0A0000002DE9FF4F83B09B464D
:102F40008A4604004FF0000605D140F2DC4251A150
:102F500057A0FEF79BF9BAF1000F07D1206C28B1FA
:102F600040F2DD424BA152A0FEF790F900F0A2FA28
:102F700038B9059828B14FF49C6246A14CA0FEF7E1
:102F800085F94FF000094FF08057DFF83481FFF7E3
:102F9000A9FBA56B45B351462046E668FEF7C6FF80
:102FA000BBF1000F13D0E660606A50B104F1240059
:102FB00000F06AFB28B1C8F80070BFF34F8FBFF371
:102FC0006F8FFFF7CBFB012007B0BDE8F08F6D1EC0
:102FD000A563206810B9FFF71FFB60602069002817
:102FE000EFD004F11000E3E7059808B11EB106E048
:102FF000FFF7B4FB27E06846FFF706FE0126FFF760
:10300000ADFBFFF777FEFFF76DFB94F94400401C22
:1030100001D184F8449094F94500401C01D184F812
:103020004590FFF79BFB05A9684600F0CFF9002803
:1030300020460AD0FFF730FA00F076FB2046FFF773
:10304000A3F80028A3D00020BEE7FFF79DF8D8B171
:10305000206830B9FFF746FB6068FFF793FDFFF784
:103060007DFB04F124000599FFF72CFD2046FFF7B6
:1030700013FA00F059FB002889D1C8F80070BFF39B
:103080004F8FBFF36F8F82E72046FFF705FA00F0FE
:103090004BFB7CE72E2E5C2E2E5C467265655254EF
:1030A0004F535C7372635C71756575652E630000C8
:1030B0004572726F723A25732C25640D0A00000068
:1030C00004ED00E070B50D46040005D140F21B127E
:1030D0001CA123A0FEF7DAF8FFF704FBD4E90F20C8
:1030E000216802FB001161600021A1632168A160D9
:1030F0000A46D4E90F01401E00FB0121E160214690
:103100004FF0FF3001F8440F487004F110004DB14A
:10311000FFF7B6FA04F12400FFF7B2FAFFF71EFB3F
:10312000012070BD21690029F8D000F0ADFA002817
:10313000F4D00F494FF080500860BFF34F8FBFF3BA
:103140006F8FEBE72E2E5C2E2E5C46726565525417
:103150004F535C7372635C71756575652E63000017
:103160004572726F723A25732C25640D0A000000B7
:1031700004ED00E02DE9FF4F83B01F468B460400AD
:103180004FF0000605D140F2D9224DA153A0FEF721
:103190007DF8BBF1000F07D1206C28B140F2DA2294
:1031A00047A14EA0FEF772F8022F08D1E06B01286C
:1031B00005D040F2DB2242A148A0FEF767F800F0FC
:1031C00079F938B9059828B140F2DE223CA143A034
:1031D000FEF75CF84FF0000A4FF08058DFF80C91D2
:1031E000FFF780FAA06BE16B884205D3022F03D072
:1031F0000598C8B1DEB11EE03A4659462046FEF7B2
:10320000A8FE616A19B104F1240000F03DFA28B16A
:10321000C9F80080BFF34F8FBFF36F8FFFF79EFA9F
:10322000012007B0BDE8F08FFFF798FA21E068466B
:10323000FFF7EAFC0126FFF791FAFFF75BFDFFF7C6
:1032400051FA94F94400401C01D184F844A094F947
:103250004500401C01D184F845A0FFF77FFA05A97D
:10326000684600F0B3F830B12046FFF715F900F0DA
:103270005BFA0020D5E7FFF735FAA06BE16B8842D7
:1032800001D1012500E00025FFF768FA95B104F1AE
:1032900010000599FFF716FC2046FFF7FDF800F037
:1032A00043FA00289CD1C9F80080BFF34F8FBFF3C9
:1032B0006F8F95E72046FFF7EFF800F035FA8FE7BC
:1032C0002E2E5C2E2E5C4672656552544F535C73F5
:1032D00072635C71756575652E6300004572726F6F
:1032E000723A25732C25640D0A00000004ED00E0FD
:1032F0002DE9F0471F4690468946040005D140F26B
:103300009F3227A12DA0FDF7C1FFB9F1000F07D112
:10331000206C28B14FF4687221A128A0FDF7B6FFF8
:10332000022F08D1E06B012805D040F2A1321CA188
:1033300022A0FDF7ABFFFFF7A1FA5020EFF31186B3
:1033400080F31188BFF34F8FBFF36F8FA06BE16BDA
:10335000884206D3022F04D0002086F31188BDE8EE
:10336000F08794F945503A4649462046FEF7F1FD6C
:10337000681C04D06D1C84F845500120EDE7606A9C
:103380000028FAD004F1240000F07EF90028F4D0DF
:10339000B8F1000FF1D00121C8F80010EDE70000EE
:1033A0002E2E5C2E2E5C4672656552544F535C7314
:1033B00072635C71756575652E6300004572726F8E
:1033C000723A25732C25640D0A00000070B50D4675
:1033D000040005D140F6CB3214A11BA0FDF756FF27
:1033E0002DB940F6CC3211A117A0FDF74FFFFFF722
:1033F00079F9194AD06829684B1C0FD02368126AE2
:10340000934202D0626882420AD96268801A884276
:1034100006D2081A28602046FFF7F6FB002400E0D9
:103420000124FFF79BF9204670BD00002E2E5C2E74
:103430002E5C4672656552544F535C7372635C74C4
:1034400061736B732E6300004572726F723A25735D
:103450002C25640D0A000000340000202DE9FF5FD8
:103460008346DDE90E87994616468A469000FFF7A7
:1034700049F805001AD05420FFF744F8040012D090
:1034800025630021CDE90241CDE900874B46324654
:1034900051465846FEF7D8FD2046FEF78DFC012028
:1034A00004B0BDE8F09F2846FFF78AF94FF0FF30DF
:1034B000F6E700000548416919B1006B18B100201A
:1034C0007047012070470220704700003400002040
:1034D0000148C06870470000340000202DE9F04129
:1034E0002D4F0026386B40B1B869401CB861F869AF
:1034F00000B101263046BDE8F081FD686D1CFD601D
:1035000011D1786B006828B140F6D91223A12AA006
:10351000FDF7BCFE786BB96B7963B863386A401C01
:103520003862FEF719FFB86ADFF89C80854209D33C
:10353000786B006880B1786BC068C4686068854249
:103540000DD2B8623868C06A00EB800158F82100DB
:103550000128CCD90126CAE74FF0FF30F1E7201D42
:10356000FFF77CF8A06A18B104F11800FFF776F8AD
:10357000E06A01213A6981401143396100EB800121
:1035800008EB8100211DFFF7A1F8E06A3968C96ADC
:103590008842CDD30126CBE7340000202E2E5C2EAE
:1035A0002E5C4672656552544F535C7372635C7453
:1035B00061736B732E6300004572726F723A2573EC
:1035C0002C25640D0A0000005891002070B50400FD
:1035D0004FF000063CD01F4D2868844205D040F6CD
:1035E000C7621DA123A0FDF751FEA06C28B940F6CB
:1035F000C96219A11FA0FDF749FEA06C401EA0647E
:10360000626CE16A914223D010BB201DFFF726F8BF
:103610001C49012250B9E06A00EB800351F82330C5
:1036200023B92B6902FA00F083432B61606CE062DE
:10363000C0F12000A061E06A2B6982401A432A6130
:1036400000EB800001EB8000211DFFF73FF8012611
:10365000304670BD340000202E2E5C2E2E5C46724B
:10366000656552544F535C7372635C7461736B7322
:103670002E6300004572726F723A25732C25640D1B
:103680000A000000589100202DE9F041C068C4688C
:103690002CB940F6613216A11CA0FDF7F7FD04F12C
:1036A00018000746FEF7DAFF1C4D286B012660B1B3
:1036B00039461B48FFF70AF8E06A2968C96A884258
:1036C00013D90120EE61BDE8F081201DFEF7C6FF91
:1036D000E06A2A6906FA00F111432961114900EBF9
:1036E000800001EB8000211DE4E70020EBE70000F3
:1036F0002E2E5C2E2E5C4672656552544F535C73C1
:1037000072635C7461736B732E6300004572726F39
:10371000723A25732C25640D0A0000003400002045
:1037200000940020589100202DE9F0472B4D0024F3
:103730002746286B28B94FF4FD6229A12FA0FDF779
:10374000A5FDFEF7CFFF286B401E2863286BE8BB62
:10375000A8682E490126C8B3A1F52A798846D8F869
:103760000010E9B1D8F80C00C46804F11800FEF7A5
:1037700075FF201DFEF772FFE06A2A6906FA00F164
:103780001143296100EB800109EB8100211DFEF747
:103790009DFFE06A2968C96A8842E0D3EE61DEE7EE
:1037A0000CB1FEF7D9FDAC693CB1FFF797FE00B153
:1037B000EE61641EF9D10020A861E86930B11449B6
:1037C000012738070860BFF34F8F00E001E0BFF327
:1037D0006F8FFEF7C3FF3846BDE8F0873400002046
:1037E0002E2E5C2E2E5C4672656552544F535C73D0
:1037F00072635C7461736B732E6300004572726F49
:10380000723A25732C25640D0A00000000940020F4
:1038100004ED00E02DE9F0470746994616460D46AF
:103820002820DDF820A0FEF76DFE040014D0B84675
:103830004F46D1462DB94FF4C67209A10FA0FDF72E
:1038400025FDFEF721FB04F11801C4F8008081E892
:10385000E002201DFEF71FFF2046BDE8F0870000B4
:103860002E2E5C2E2E5C4672656552544F535C734F
:1038700072635C74696D6572732E63004572726F5A
:10388000723A25732C25640D0A0000001CB5002433
:10389000FEF7FAFA0C48006868B10B491F20091DB1
:1038A000CDE9000100234FF4807208A10948FFF719
:1038B000D5FD040005D140F2331207A10DA0FDF79C
:1038C000E5FC20461CBD000070000020546D7220F5
:1038D00053766300712400082E2E5C2E2E5C4672F7
:1038E000656552544F535C7372635C74696D6572A5
:1038F000732E63004572726F723A25732C25640D26
:103900000A0000002DE9FE4FDDF830A099469046F0
:103910000D4606004FF0000705D14FF4D37211A1F8
:1039200017A0FDF7B3FC1A4C206880B1CDE9005810
:103930000296062D10DAFFF7BDFD02284FF00003B6
:1039400008D0002269462068FFF714FC0746384675
:10395000BDE8FE8F5246F5E700234A466946FFF769
:10396000C7FCF3E72E2E5C2E2E5C46726565525422
:103970004F535C7372635C74696D6572732E630080
:103980004572726F723A25732C25640D0A0000008F
:103990007000002000000000000000000000000097
:1039A000000000003F400000000000000000300068
:1039B000400030004000000009000BC03D000BC07B
:1039C0003D00090018C024407FE022403180000003
:1039D000180024C01B000D803240018003801C4071
:1039E00027401C80074000401000600000000000DD
:1039F000000000000000000000001F802040402068
:103A00000000402020401F80000000000900060048
:103A10001F80060009000000040004003F8004002D
:103A20000400000000100060000000000000000022
:103A30000400040004000400040000000000004032
:103A40000000000000000000002001C00600380057
:103A5000400000001F802040204020401F800000C8
:103A6000000010403FC000400000000018C021408E
:103A70002240244018400000108020402440244070
:103A80001B80000002000D0011003FC0014000003B
:103A90003C80244024402440238000001F80244098
:103AA00024403440038000003000200027C038004C
:103AB000200000001B802440244024401B80000084
:103AC0001C0022C0224022401F8000000000000095
:103AD000084000000000000000000000046000003A
:103AE00000000000000004000A0011002080404097
:103AF0000900090009000900090000000000404019
:103B0000208011000A000400180020002340240037
:103B1000180000001F802040274029401F4000005F
:103B2000004007C039000F0001C0004020403FC0E6
:103B3000244024401B8000001F8020402040204063
:103B40003080000020403FC0204020401F80000007
:103B500020403FC024402E4030C0000020403FC0E5
:103B600024402E00300000000F0010802040224032
:103B70003380020020403FC0040004003FC02040CA
:103B8000204020403FC02040204000000060202016
:103B900020203FC02000200020403FC024400B00D8
:103BA00030C0204020403FC020400040004000C0C6
:103BB0003FC03C0003C03C003FC0000020403FC06D
:103BC0000C4023003FC020001F80204020402040A8
:103BD0001F80000020403FC0244024001800000047
:103BE0001F802140214020E01FA0000020403FC056
:103BF0002440260019C0004018C024402440224020
:103C000031800000300020403FC0204030000000E4
:103C100020003F80004000403F80200020003E0008
:103C200001C0070038002000380007C03C0007C072
:103C300038000000204039C0060039C02040000094
:103C40002000384007C0384020000000304021C02C
:103C50002640384020C00000000000007FE04020E7
:103C600040200000000070000C00038000400000B5
:103C70000000402040207FE0000000000000200005
:103C80004000200000000000001000100010001094
:103C900000100010000000004000000000000000C4
:103CA000000002800540054003C0004020003FC0E6
:103CB00004400440038000000000038004400440EE
:103CC0000640000000000380044024403FC0004044
:103CD0000000038005400540034000000000044050
:103CE0001FC0244024402000000002E00550055081
:103CF0000650042020403FC00440040003C00040A0
:103D00000000044027C00040000000000010001028
:103D1000041027E00000000020403FC001400700E1
:103D200004C00440204020403FC00040004000004C
:103D300007C0040007C0040003C00000044007C01F
:103D40000440040003C0004000000380044004401D
:103D500003800000041007F00450044003800000BA
:103D6000000003800440045007F00010044007C026
:103D70000240040004000000000006400540054029
:103D800004C00000000004001F8004400040000048
:103D9000040007800040044007C000400400070002
:103DA00004C0018006000400060001C0070001C035
:103DB00006000000044006C0010006C004400000E8
:103DC0000410071004E00180060004000000044015
:103DD00005C00640044000000000000004007BE035
:103DE00040200000000000000000FFF00000000084
:103DF000000040207BE00400000000004000800044
:103E000040002000200040000000000000000000F2
:103E100000000000000000000000000000001FCCB7
:103E2000000C0000000000000000080030006000EE
:103E30000800300060000000022003FC1E20022069
:103E400003FC1E200220000000000E1811043FFF9A
:103E500010840C78000000000F0010840F3800C0A0
:103E6000077818840078000000780F8410C41124AB
:103E70000E9800E40084000808006800700000004C
:103E8000000000000000000000000000000007E04B
:103E900018182004400200000000400220041818F6
:103EA00007E00000000000000240024001800FF027
:103EB00001800240024000000080008000800FF876
:103EC00000800080008000000001000D000E000056
:103ED0000000000000000000000000800080008062
:103EE00000800080008000800000000C000C0000BA
:103EF0000000000000000000000000060018006044
:103F00000180060018002000000007F008081004D7
:103F10001004080807F000000000080408041FFC53
:103F2000000400040000000000000E0C1014102417
:103F3000104411840E0C000000000C181004110431
:103F4000110412880C700000000000E0032004241B
:103F500008241FFC0024000000001F981084110496
:103F60001104108810700000000007F00888110488
:103F7000110418880070000000001C00100010FCE4
:103F800013001C001000000000000E3811441084C3
:103F9000108411440E38000000000700088C104403
:103FA0001044088807F00000000000000000030C27
:103FB000030C0000000000000000000000010106EA
:103FC000000000000000000000000080014002200E
:103FD0000410080810040000022002200220022021
:103FE0000220022002200000000010040808041033
:103FF000022001400080000000000E001200100CA2
:10400000106C10800F00000003E00C1813E414245F
:1040100017C4082807D000000004003C03C41C405B
:10402000074000E4001C000410041FFC11041104EC
:1040300011040E880070000003E00C181004100436
:10404000100410081C10000010041FFC10041004C1
:104050001004080807F0000010041FFC11041104EC
:1040600017C410040818000010041FFC11041100EC
:1040700017C010000800000003E00C181004100422
:1040800010441C780040000010041FFC10840080C5
:10409000008010841FFC10040000100410041FFC9A
:1040A00010041004000000000003000110011001C2
:1040B0001FFE10001000000010041FFC11040380FC
:1040C0001464181C1004000010041FFC10040004E9
:1040D00000040004000C000010041FFC1F0000FC82
:1040E0001F001FFC1004000010041FFC0C04030040
:1040F00000E010181FFC100007F00808100410045E
:104100001004080807F0000010041FFC1084108041
:10411000108010800F00000007F0081810241024F1
:10412000101C080A07F2000010041FFC1104110003
:1041300011C011300E0C000400000E1C110410847C
:10414000108410441C3800001800100010041FFCDC
:10415000100410001800000010001FF810040004E4
:10416000000410041FF8100010001E0011E0001CD5
:10417000007013801C0010001FC0103C00E01F00E6
:1041800000E0103C1FC000001004180C163401C0E1
:1041900001C01634180C100410001C00130400FC9D
:1041A00013041C00100000000804101C106410848C
:1041B00013041C04101800000000000000007FFE23
:1041C0004002400240020000000030000C0003806A
:1041D0000060001C0003000000004002400240029A
:1041E0007FFE0000000000000000000020004000F2
:1041F000400040002000000000010001000100011B
:10420000000100010001000100004000400020000A
:10421000000000000000000000000098012401449C
:104220000144014400FC000410001FFC008801044C
:104230000104008800700000000000700088010484
:1042400001040104008800000000007000880104DF
:10425000010411081FFC0004000000F8014401449F
:104260000144014400C800000000010401040FFCE7
:104270001104110411001800000000D601290129C1
:10428000012901C90106000010041FFC008401007F
:104290000100010400FC000400000104190419FCE1
:1042A0000004000400000000000000030001010100
:1042B000190119FE0000000010041FFC002400403A
:1042C00001B4010C010400000000100410041FFCE4
:1042D0000004000400000000010401FC01040100CE
:1042E00001FC0104010000FC010401FC0084010048
:1042F0000100010400FC0004000000F801040104B6
:104300000104010400F80000010101FF008501041F
:1043100001040088007000000000007000880104A3
:104320000104010501FF00010104010401FC0084F6
:104330000104010001800000000000CC01240124E0
:10434000012401240198000000000100010007F889
:104350000104010400000000010001F80004000451
:104360000004010801FC0004010001800170000C40
:10437000001001600180010001F0010C003001C05B
:104380000030010C01F0010000000104018C0074F8
:104390000170018C01040000010101810171000E16
:1043A000001801600180010000000184010C01344B
:1043B00001440184010C0000000000000000000026
:1043C00001003EFC4002400200000000000000002E
:1043D000FFFF0000000000000000400240023EFC21
:1043E000010000000000000000006000800080006C
:1043F00040004000200020000000000000000000FD
:1044000000000000000000000000000000000000AC
:10441000000000000000000000000000000000009C
:1044200000000000000000000000000F80380FFEB8
:10443000380F80380000000000000000000000007D
:104440000000000000000100000600000C00003821
:1044500000003100000600000C00003800003000B1
:10446000000000000000000061800067F807F9808C
:104470000061800061800061800061800067F80752
:10448000F98000618000000000000000000001C011
:10449000E003E0F00630080418081FFFFE040E08D1
:1044A0000787F00381E000000000000001F0000633
:1044B0000C00040408060C7001F9C0000E00003B5B
:1044C000E000EC18070808040C180003E0000000E6
:1044D0000001E00007F003F818041C08041708079F
:1044E000E1D003C0E00023B0003C08002008000039
:1044F0001000000000000001000031000032000048
:104500001C0000000000000000000000000000008F
:10451000000000000000000000000000000000009B
:1045200000000000000000007F0001FFC00780F0D5
:104530000C00181000042000020000000000002001
:1045400000021000040C00180780F001FFC0007F7B
:10455000000000000000000000000000000000005B
:10456000000000004200006600006600003C000001
:10457000180003FFC0001800003C00006600006641
:1045800000004200000000000800000800000800D1
:1045900000080000080001FFC0000800000800003B
:1045A00008000008000008000000000000010000F2
:1045B0003100003200001C0000000000000000007C
:1045C00000000000000000000000000000000000EB
:1045D00008000008000008000008000008000008AB
:1045E00000000800000800000800000800000000AB
:1045F0000000000000000000380000380000380013
:1046000000000000000000000000000000000000AA
:104610000000000000000000000600001C00007008
:10462000000180000E0000380000C0000700001CE0
:104630000000300000000000000000007F8001FF4B
:10464000E003807006001804000804000806001843
:1046500003807001FFE0007F800000000000000088
:10466000000001000801000801000803FFF807FF2F
:10467000F80000080000080000080000000000002A
:1046800000000001C03802C058040098040118045A
:104690000218040418061C1803F81801E0F80000BA
:1046A0000000000000000001C0E003C0F0040008AA
:1046B00004080804080806180803F41801E7F000C5
:1046C00001E0000000000000000000000300000DF9
:1046D0000000110000610000810803010807FFF8D5
:1046E0000FFFF800010800010800000000000000B2
:1046F00000E007FCD006080806100806100806109F
:1047000008061838060FF00607C000000000000079
:10471000000000003F8001FFE0038430020818041D
:104720001008041008041008071810030FF0000701
:10473000C000000000000000000003C000070000EF
:104740000600000600F80607F806180006E0000755
:10475000000006000000000000000001E1E003F797
:10476000F0063410041808041808040C08040C0897
:1047700006161803F3F001C1E0000000000000007D
:10478000F80003FC3003063804020804020804029F
:10479000080404100308F001FFC0007F00000000BF
:1047A0000000000000000000000000000000000009
:1047B0007038007038007038000000000000000001
:1047C00000000000000000000000000000000000E9
:1047D00000000000301A00301C0000000000000043
:1047E00000000000000000000000000000000008C1
:1047F0000000140000220000410000808001004001
:104800000200200400100800080000000000000062
:1048100021000021000021000021000021000021D2
:104820000000210000210000210000210000000004
:104830000000000000000800080400100200200131
:1048400000400080800041000022000014000008A9
:104850000000000000000003C00004C000040000CD
:10486000080038080F380808380810000C30000716
:10487000E00003C000000000000000003F8000FFD7
:10488000E0038070020F1006708804C0880483085B
:10489000047F8802C09003012000FE400000080051
:1048A00000180001F8003E0801C20007020007E2FC
:1048B0000000FE00001FC80001F8000038000008DA
:1048C00004000807FFF807FFF804080804080804B4
:1048D000080804080806180803F41801E7F00001A6
:1048E000E0000000000000003F8001FFE003807056
:1048F0000200180400080400080400080400100660
:1049000000200780C000000004000807FFF807FF30
:10491000F80400080400080400080400180200104D
:1049200003807001FFE0007F8000000004000807A2
:10493000FFF807FFF804080804080804080804083A
:1049400008043E080400080600180100600000008A
:1049500004000807FFF807FFF8040808040800042B
:104960000800040800043E00060000060000018064
:1049700000000000000000003F8001FFE0038070A5
:104980000600180400080402080402080203F007E5
:1049900083F000020000020004000807FFF807FF90
:1049A000F8040808000800000800000800000800DB
:1049B00004080807FFF807FFF804000800000000DB
:1049C000000004000804000804000807FFF807FFBF
:1049D000F8040008040008040008000000000000BB
:1049E00000000000000600000700000104000104B0
:1049F000000104000307FFFE07FFFC0400000400A1
:104A00000004000004000807FFF807FFF8040C0882
:104A1000001800003E0004C7800503C80600F80423
:104A2000003804001800000804000807FFF807FF1A
:104A3000F804000800000800000800000800000852
:104A400000000800001800006000000004000807D3
:104A5000FFF807800807FC00007FC00003F800078C
:104A6000C000780007800807FFF807FFF804000877
:104A700004000807FFF807000803C00000E000007A
:104A80003800001E000007000001C00400F007FF0E
:104A9000F8040000000000007F8001FFE003807048
:104AA000060018040008040008060018030030017E
:104AB000FFE0007F8000000004000807FFF807FF08
:104AC000F8040408040400040400040400040400BE
:104AD000060C0003F80001F00000000000000000D8
:104AE0007F8001FFE00380700600880400880400D6
:104AF000C806003C03003E01FFE6007F8400000082
:104B000004000807FFF807FFF80408080408000479
:104B10000C00040F00040BC00610F003F03801E095
:104B20000800000800000001E0F803F03006301033
:104B3000041808041808040C08040C0802061802DB
:104B400007F00781E000000001800006000004007B
:104B50000004000004000807FFF807FFF80400083D
:104B600004000004000006000001800004000007AB
:104B7000FFE007FFF0040018000008000008000034
:104B80000800000800000804001007FFE00400000F
:104B900004000006000007E00007FE00041FE0001C
:104BA00001F80000380001E0043E0007C0000600E4
:104BB0000004000004000007E00007FFC0041FF825
:104BC0000007C007F80007FF80043FF80007C00493
:104BD000F8000700000400000000000400080600C0
:104BE0001807C07805F1C8003E00001F800463E884
:104BF0000780F80600180400080000000400000602
:104C0000000007800007E008047C08001FF8000788
:104C1000F800180804E0080700000600000400007F
:104C20000000000100080600380400F80403E8044E
:104C30000F08047C0805F00807C0080700180400E6
:104C40006000000000000000000000000000000004
:104C50000000003FFFFE2000022000022000022092
:104C60000002200002000000000000000000080018
:104C70000007000000C0000038000006000001C06E
:104C800000003000000E00000100000000000000E5
:104C9000000020000220000220000220000220006C
:104CA000023FFFFE000000000000000000000000C6
:104CB00000000000000000000008000010000030AC
:104CC000000020000030000010000008000000007C
:104CD00000000000000001000001000001000001D0
:104CE00000000100000100000100000100000100BF
:104CF00000010000010000010000000000000000B1
:104D00000020000020000010000010000000000043
:104D10000000000000000000000000000000000093
:104D200000F00019F8001B180022080026080024D3
:104D300008002410003FF8001FF8000008000018C9
:104D400000000004000007FFF80FFFF00018180033
:104D50001008002008002008003018001FF0000F85
:104D6000C00000000000000007C0001FF000183065
:104D7000002008002008002008003C08001C10004B
:104D800000600000000000000000000007C0001FDD
:104D9000F000381800200800200800200804101037
:104DA00007FFF80FFFF000001000000000000000F7
:104DB00000000007C0001FF000123000221800227F
:104DC00008002208003208001E10000E200000001B
:104DD00000000000200000200800200801FFF80368
:104DE000FFF806200804200804200807200003001C
:104DF0000000000000000000000E000E6E001FF317
:104E00000031B10020B10020B1003191001F13002A
:104E10002E1E00200E00300000000004000807FFD6
:104E2000F80FFFF800100800200000200000200804
:104E3000003FF8001FF8000008000000000000001C
:104E40000000002008002008002008063FF8063F68
:104E5000F800000800000800000800000000000042
:104E6000000000000000000003000003002001001B
:104E70002001002003063FFE063FFC00000000006A
:104E80000000000000000004000807FFF80FFFF812
:104E9000000188000300002FC00038F8002038000F
:104EA00020080000080000000000000000000400CE
:104EB0000804000804000807FFF80FFFF8000008C6
:104EC00000000800000800000000000000200800AA
:104ED0003FF8003FF8001008002000003FF8003FB6
:104EE000F8001008002000003FF8003FF80000081C
:104EF000000000002008003FF8003FF80010080004
:104F00001000002000002008003FF8001FF80000FB
:104F1000080000000000000007C0000FF00018307B
:104F20000030080020080020080030080018300079
:104F30000FF00007C0000000000000002001003F4B
:104F4000FF003FFF0010110020090020080020088A
:104F5000003038001FF0000FC0000000000000000B
:104F600007C0001FF00038180020080020080020AB
:104F700009001011001FFF003FFF000001000000AA
:104F8000002008002008002008003FF8003FF8003B
:104F90000808001008002008002000003000003041
:104FA00000000000000000000000000C78001E1847
:104FB0000033080023080021080021880021980000
:104FC00030F00038600000000000000020000020E9
:104FD0000000200000FFF003FFF800200800200878
:104FE0000020080000300000000000000000000069
:104FF0002000003FF0007FF80000180000080000CB
:1050000008002010003FF8007FF0000010000000B2
:10501000000000002000003000003C00003F800045
:1050200023F0000078000070002380003C00003076
:1050300000002000002000003C00003FE00023F8BA
:105040000000E0002700003E00003FE00021F800E3
:1050500001E0003E000020000000000020080020C9
:1050600008003838003E680027800003C8002CF88C
:105070000038380020180020080000000000000060
:105080002000003003003C01003F830023EC0000BF
:1050900070002380003C0000200000200000000081
:1050A0000000000000000038080020380020F80050
:1050B00023E8002F88003E08003808002018000070
:1050C0007000000000000000000000000000000070
:1050D0000000000008000014001FF7FC300006204C
:1050E00000020000000000000000000000000000BE
:1050F00000000000000000000000FFFFFF000000B3
:10510000000000000000000000000000000000009F
:1051100000002000023000061FF7FC001400000809
:10512000000000000000000000000000000000007F
:105130000000001800006000004000004000002057
:1051400000001000000800000400000400000C0033
:10515000001000000000000000000000000000003F
:10516000000000000000000000000000000000003F
:10517000000000000000000000000000000000002F
:10518000000000000000000000000000000000001F
:10519000000000000000000000000000000000000F
:1051A00000000000000000000000000000000000FF
:1051B00000000000000000000000000000000000EF
:1051C00000000000000000000000000000000000DF
:1051D00000000000000000000000000000000000CF
:1051E00000000000000000000000000007F000C008
:1051F00007FFE1E007F001E0000000C00000000050
:10520000000000000000000000000000000000009E
:10521000000000000000000000000000000000008E
:10522000000000000000000000000000000000007E
:10523000000000000000000000000000000000006E
:10524000000000000000000000000000000000005E
:10525000000000000000000000000000002000002E
:1052600001C00000078000001F0000001E000000B9
:105270001C20000001C00000078000001F0000008B
:105280001E0000001C0000000000000000000000E4
:10529000000000000000000000000000000000000E
:1052A00000000000000000000000000000000000FE
:1052B00000000000000000000000000000000000EE
:1052C00000000000000000000000000000000000DE
:1052D000000000000000000000180C0000180C0086
:1052E00000180FE0001FFC0003F80C0000180C0071
:1052F00000180C0000180C0000180C0000180FE03B
:10530000001FFC0003F80C0000180C0000180C0033
:10531000000000000000000000000000000000008D
:10532000000000000000000000000000000000007D
:10533000000000000000000000000000000000006D
:10534000000000000000000000000000000000005D
:1053500000000000000000000000000000000780C6
:10536000007807C000FC0640010E00200307002063
:10537000020380200FFFFFFC0201C0200200E0605A
:105380000130704001F03F8000F01F00000000007D
:10539000000000000000000000000000000000000D
:1053A00000000000000000000000000000000000FD
:1053B00000000000000000000000000000000000ED
:1053C00000000000000000000000000000000000DD
:1053D0000000000000FE000001FF0000030180004B
:1053E00002008060030181C001FF070000FE180079
:1053F0000000E0000003BF00000CFFC000718060EF
:1054000001C10020030180600000FFC000003F00D8
:10541000000000000000000000000000000000008C
:10542000000000000000000000000000000000007C
:10543000000000000000000000000000000000006C
:10544000000000000000000000000000000000005C
:105450000000000000001F0000007FC000FCC0C072
:1054600001FF80600303E0200202782002061E2074
:1054700003FC074001F00380000103C000011C6031
:105480000001E02000010020000100400000018038
:10549000000000000000000000000000000000000C
:1054A00000000000000000000000000000000000FC
:1054B00000000000000000000000000000000000EC
:1054C00000000000000000000000000000000000DC
:1054D0000000000000000000002000001C60000030
:1054E0001C4000001F8000000F00000000000000B2
:1054F00000000000000000000000000000000000AC
:10550000000000000000000000000000000000009B
:10551000000000000000000000000000000000008B
:10552000000000000000000000000000000000007B
:10553000000000000000000000000000000000006B
:10554000000000000000000000000000000000005B
:10555000000000000000000000000000000000004B
:10556000000000000000000000000000000000003B
:105570000007F800003FFF00007807C001C000E00E
:1055800003000030040000080800000410000002BE
:10559000000000000000000000000000000000000B
:1055A00000000000000000000000000000000000FB
:1055B00000000000000000000000000000000000EB
:1055C00000000000000000000000000000000000DB
:1055D00000000000000000001000000208000004AD
:1055E000040000080300003001C000E0007807C09C
:1055F000003FFF000007F80000000000000000006E
:10560000000000000000000000000000000000009A
:10561000000000000000000000000000000000008A
:10562000000000000000000000000000000000007A
:10563000000000000000000000000000000000006A
:10564000000000000000000000000000000000005A
:10565000000000000000000000000000000C180026
:10566000000E3800000E3800000630000003600015
:105670000061438000FFFF80006143000003600081
:1056800000063000000E3800000E3800000C180034
:10569000000000000000000000000000000000000A
:1056A00000000000000000000000000000000000FA
:1056B00000000000000000000000000000000000EA
:1056C00000000000000000000000000000000000DA
:1056D000000000000000000000000000000080004A
:1056E00000008000000080000000800000008000BA
:1056F00000008000007FFF000000800000008000AC
:105700000000800000008000000080000000800099
:105710000000000000000000000000000000000089
:105720000000000000000000000000000000000079
:105730000000000000000000000000000000000069
:105740000000000000000000000000000000000059
:10575000000000000000000000000001000000E365
:10576000000000E2000000FC0000007800000000E3
:105770000000000000000000000000000000000029
:105780000000000000000000000000000000000019
:105790000000000000000000000000000000000009
:1057A00000000000000000000000000000000000F9
:1057B00000000000000000000000000000000000E9
:1057C00000000000000000000000000000000000D9
:1057D00000000000000000000000800000008000C9
:1057E00000008000000080000000800000008000B9
:1057F00000008000000080000000800000008000A9
:105800000000800000008000000080000000800098
:105810000000000000000000000000000000000088
:105820000000000000000000000000000000000078
:105830000000000000000000000000000000000068
:105840000000000000000000000000000000000058
:10585000000000000000000000000000000000C088
:10586000000001E0000001E0000000C000000000B6
:105870000000000000000000000000000000000028
:105880000000000000000000000000000000000018
:105890000000000000000000000000000000000008
:1058A00000000000000000000000000000000000F8
:1058B00000000000000000000000000000000000E8
:1058C00000000000000000000000000000000000D8
:1058D00000000000000000000000000C0000003884
:1058E000000000E00000038000000E00000038000F
:1058F0000000E00000038000000E000000380000FF
:1059000000E00000038000000E000000180000000E
:105910000000000000000000000000000000000087
:105920000000000000000000000000000000000077
:105930000000000000000000000000000000000067
:105940000000000000000000000000000000000057
:10595000000000000000000000000000000FF80040
:10596000007FFF0000F00780018000C0030000609E
:10597000020000200200002002000020030000605E
:10598000018000C000E00380007FFF00000FF800EE
:105990000000000000000000000000000000000007
:1059A00000000000000000000000000000000000F7
:1059B00000000000000000000000000000000000E7
:1059C00000000000000000000000000000000000D7
:1059D00000000000000000000000000000000000C7
:1059E00000800020008000200080002000800060F7
:1059F00001FFFFE003FFFFE0000000600000002067
:105A00000000002000000020000000000000000056
:105A10000000000000000000000000000000000086
:105A20000000000000000000000000000000000076
:105A30000000000000000000000000000000000066
:105A40000000000000000000000000000000000056
:105A5000000000000000000000000000007800E0EE
:105A6000009801600100026002000460020008600A
:105A700002001060020020600200406003008060AD
:105A80000183006001FE00E0007C07800000000050
:105A90000000000000000000000000000000000006
:105AA00000000000000000000000000000000000F6
:105AB00000000000000000000000000000000000E6
:105AC00000000000000000000000000000000000D6
:105AD00000000000000000000000000000F007804F
