:020000040800F2
:10000000489C002079020008C70A0008450600083D
:10001000C30A000809050008B91000080000000024
:10002000000000000000000000000000C101000806
:100030000D0500080000000015020008D90E000898
:10004000930200089302000893020008930200083C
:10005000930200089302000893020008930200082C
:10006000930200089302000893020008930200081C
:10007000930200089302000893020008930200080C
:1000800093020008930200089302000893020008FC
:1000900093020008930200089302000893020008EC
:1000A00093020008930200089302000893020008DC
:1000B00093020008930200089302000893020008CC
:1000C00093020008930200089302000893020008BC
:1000D00093020008930200089302000893020008AC
:1000E000930200089302000893020008930200089C
:1000F000930200089302000893020008930200088C
:10010000930200089302000893020008930200087B
:10011000930200089302000893020008930200086B
:10012000930200089302000893020008930200085B
:10013000930200089302000893020008930200084B
:10014000930200089302000893020008930200083B
:10015000930200089302000893020008930200082B
:10016000930200089302000893020008930200081B
:10017000930200089302000893020008930200080B
:1001800093020008930200089302000893020008FB
:1001900093020008930200089302000893020008EB
:1001A000930200089302000893020008DFF80CD0C5
:1001B00000F0AAF8004800475D1B0008489C00209A
:1001C0002A4B19680868B0E8F04F80F30988BFF33C
:1001D0006F8F4FF0000080F311887047000000001F
:1001E00006480068006880F3088862B661B6BFF30D
:1001F0004F8FBFF36F8F00DF00BF00BF08ED00E03F
:10020000DFF80C00016841F470010160704700BF25
:1002100088ED00E0EFF30980BFF36F8F134B1A688E
:100220001EF0100F08BF20ED108A20E9F04F10607B
:1002300008B44FF0500080F31188BFF34F8FBFF325
:100240006F8F02F0AFFE4FF0000080F3118808BC02
:1002500019680868B0E8F04F1EF0100F08BFB0EC46
:10026000108A80F30988BFF36F8F70473400002035
:10027000EFF30580704700000648804706480047B6
:10028000FEE7FEE7FEE7FEE7FEE7FEE7FEE7FEE746
:10029000FEE7FEE7E90E0008AD01000810B5431ABD
:1002A000934209D28318881803E010F8011D03F85F
:1002B000011D521EF9D210BD40EA01039B0703D075
:1002C00009E008C9121F08C0042AFAD203E011F895
:1002D000013B00F8013B521EF9D210BD30B50B4670
:1002E000014600202022012409E021FA02F59D4266
:1002F00005D303FA02F5491B04FA02F52844151E3A
:10030000A2F10102F1DC30BD064C074D06E0E068C9
:1003100040F0010394E8070098471034AC42F6D34C
:10032000FFF748FF183E0008383E00081CB50124BE
:1003300002F0B2FA1B48042100238022CDE900100C
:1003400019A11C4803F07EFA0446012C02D11AA020
:1003500000F0B4FE2048032100238022CDE90010E4
:100360001EA1214803F06EFA0446012C02D11FA001
:1003700000F0A4FE2548022100238A02CDE90010E6
:1003800023A1264803F05EFA0446012C02D124A0E2
:1003900000F094FE2948006802F030FC02F0C0FA38
:1003A0001CBD00009C0000204D61696E5F546173AC
:1003B0006B000000B10A0008206372656174204D73
:1003C00061696E5F5461736B2073756363657373EA
:1003D000A3A10D0A00000000A00000205469636B77
:1003E0005F5461736B000000510F00082063726559
:1003F0006174205469636B5F5461736B2073756320
:1004000063657373A3A10D0A00000000A40000201F
:100410004755495F5461736B00000000ED0500080B
:10042000206372656174204755495F5461736B2086
:1004300073756363657373A3A10D0A0098000020B0
:1004400070B50024002500262D48006840F001000A
:100450002B4908602A480838006840F07C00284989
:100460000839086044F0010444F0080444F0100422
:1004700044F0400444F4807400BF44F4006444F445
:10048000805400BF1F48046045F0010545F0600539
:1004900045F4A06545F4A04545F4803545F4801544
:1004A00045F08075C005C0F8485100231A46012167
:1004B000184600F04BFC4FF4FA7000F06BFC002380
:1004C0001A460221184600F041FC002308220321AD
:1004D000184600F03BFC46F0010600BF46F020063F
:1004E00000BF46F40076334600220421104600F097
:1004F0002DFC40F2B45003491431086070BD000077
:1005000038380240400100A000BFFEE77047F0B558
:100510000A4600210023002400BF3DE0012505FA22
:1005200001F3156805EA03049C4234D105684F00C5
:100530000326BE40B543056015794E00B5400668F8
:10054000354305601579012D02D01579022D16D19C
:1005500085684F000326BE40B543856055794E003F
:10056000B540866835438560456801268E40B543B1
:100570004560456896798E40B6B235434560C5689A
:100580004F000326BE40B543C560D5794E00B54047
:10059000C6683543C560491C1029BFD3F0BDF0B50E
:1005A000002300244D07ED0E02FA05F3CE1000F1F2
:1005B000200555F826504E07F70E0F26BE40B543CE
:1005C000CF1000F1200646F82750CE1000F120058C
:1005D00055F8265045EA0304CE1000F1200545F8F1
:1005E0002640F0BD4183704701837047002400BF5F
:1005F00003E00E4921F81440641C42F2107084425A
:10060000F7D3002407E0094830F81420214608A059
:1006100000F054FD641C42F210708442F3D303E0F6
:100620004FF47A7002F0ACFAFAE70000000000C163
:10063000746573747372616D5B25645D3A25640D36
:100640000A00000000BFFEE718B504460648009403
:10065000008B401E83B20448C08A401E82B2002133
:10066000084600F071F818BD149400200E498871F6
:100670000E49487530B989880C4AD18211460988DB
:10068000118308E0012806D108490988074AD18268
:100690001146898811830549C98A034A1180034993
:1006A000098B51807047000034940020149400207E
:1006B000F0B503460C461546002100200022214ECD
:1006C000366826F080561F4F3E6001E04E1CB1B2E6
:1006D0001C4E366806F000561EB141F6FF76B14258
:1006E000F4DB41F6FF76B14201D1012029E042EA74
:1006F000831242EA0472134E88363260361D366821
:1007000026F440360F4F8C373E603E46366846EA48
:1007100005463E600B4E366846F08056094F3E60F7
:1007200001E04E1CB1B2074E366806F000561EB905
:1007300041F6FF76B142F4DB41F6FF76B14200D1DB
:100740000220F0BD003802402DE9F04F04460D466E
:1007500016464FF0000CDFF8289199F81590B9F182
:10076000000F04D02046294632461F4611E0284695
:10077000DFF80C91D9F80490A9EB0609A9F1010161
:100780001A46DFF8FC90D9F80490A9EB0409A9F106
:100790000107DFF8EC90B9F80090A2EB000A0AF12B
:1007A000010AA9EB0A091FFA89F8DFF8D49099F831
:1007B0001490DFF8D0A05AF82990DFF8C4A0DAF836
:1007C0001CA0DFF8BCB0DBF800B00BFB010B0AFB90
:1007D0000B9EDFF8B490D9F8009049F40009DFF8D7
:1007E000A8A0CAF80090DFF8A490D9F8009029F0EA
:1007F0000109DFF898A0CAF800904FF44039CAF810
:1008000000904FF00209CAF83490D146C9F84080F0
:10081000C9F83CE0A7EB010909F10109A2EB000AC4
:100820000AF1010A49EA0A49DFF860A0CAF84490CF
:10083000DDF82490CAF83890D146D9F8009049F0F4
:100840000109CAF8009005E00CF1010CBCF5001F8D
:1008500000D308E0DFF83490D9F8049009F00209D9
:10086000B9F1000FF0D000BFDFF82090D9F8089060
:1008700049F00209DFF814A0CAF80890BDE8F08F2B
:1008800014940020A80000203038024000B002403C
:100890002DE9F04106ACF0CCE0B9DFF878C0CCF837
:1008A0000010DFF870C0ACF1180CCCF800200CF18F
:1008B000040CCCF8003047EA046CDFF85880A8F14B
:1008C0001008C8F800C046EA052C08F10408C8F86A
:1008D00000C01DE0DFF83CC00CF1800CCCF800102B
:1008E000DFF830C00CF1680CCCF800200CF1040CDF
:1008F000CCF8003047EA046CDFF8188008F1700883
:10090000C8F800C046EA052C08F10408C8F800C081
:10091000BDE8F081AC680140012910D130B9154A19
:10092000126842F00102134B1A6019E0114A80323A
:10093000126842F001020F4B80331A6010E079B95F
:1009400030B90C4A126822F001020A4B1A6007E023
:10095000084A8032126822F00102064B80331A6086
:10096000044A603A126842F00102024B603B1A608E
:1009700070470000846801402DE9F04782460F4629
:1009800090461E46DDF820900025BAF1000F43D1B5
:10099000B81945490968C1F30B41084404044248A9
:1009A0000068C0F30B403844401C20433E497C3172
:1009B000086008EB09003C490968C1F30A010844D2
:1009C000040439480068C0F30A004044401C204336
:1009D00035498031086034488830006800F00705E8
:1009E0000DB904240AE0012D01D1032406E0052DF0
:1009F00001D0062D01D1012400E0022406FB04F001
:100A0000C01C06FB04F140EA01402749A4310860FC
:100A1000081DC0F8009041E0B81923490968C1F3E6
:100A20000B410844040420480068C0F30B403844DC
:100A3000401C20431C49FC31086008EB09001A499E
:100A40000968C1F30A010844040417480068C0F3A8
:100A50000A004044401C20431449086013480830F1
:100A6000006800F007050DB904240AE0012D01D14A
:100A7000032406E0052D01D0062D01D1012400E05C
:100A8000022406FB04F0C01C06FB04F140EA01400E
:100A9000064924310860081DC0F800900121504625
:100AA000FFF73AFFBDE8F0870C6801400C69014090
:100AB00006E04FF47A7002F063F8012001F07EFE48
:100AC000F7E700BFFEE7704708B54FF4A06000F0FD
:100AD00057F825208DF8000001208DF801008DF8D1
:100AE00002008DF80300684600F00EF826208DF80D
:100AF000000001208DF801008DF802008DF8030040
:100B0000684600F001F808BD70B5002100230F22EF
:100B1000C4781CB3174C246804F4E064C4F5E064A2
:100B2000C4F30721C1F10404E3B20A4144789C40B4
:100B3000E1B28478144021430C07210E0E4C057855
:100B40006155047804F01F050124AC4005786D114F
:100B5000AD0005F1E025C5F8004109E0047804F096
:100B60001F050124AC40054D0678761145F8264056
:100B700070BD00000CED00E000E400E080E100E06A
:100B800002490143024A1160704700000000FA0563
:100B90000CED00E029B1064A12680243044B1A60CA
:100BA00004E0034A12688243014B1A607047000058
:100BB0003038024029B1064A12680243044B1A60D9
:100BC00004E0034A12688243014B1A607047000038
:100BD0004038024029B1064A12680243044B1A60A9
:100BE00004E0034A12688243014B1A607047000018
:100BF0004438024010B501210846FFF7CBFF012120
:100C00000220FFF7C7FF01210420FFF7C3FF0121E6
:100C10000820FFF7BFFF01211020FFF7BBFF0121D4
:100C20002020FFF7B7FF01214020FFF7B3FF01218C
:100C30008020FFF7AFFF01210802FFF7ABFF012182
:100C40000803FFF7A7FF01211020FFF7C3FF0121D1
:100C50004804FFF7AFFF01218803FFF7BBFF012026
:100C600010BD0000F0B5002100220024022500265E
:100C70000223324F3F6807F00C0121B1042905D04F
:100C8000082937D105E02E4F076036E02D4F076069
:100C900033E02A4F3F1F3F68C7F38056274F3F1F5F
:100CA0003F6807F03F036EB1264FB7FBF3F7DFF85D
:100CB0008CC0ACF1040CDCF800C0CCF3881C07FB42
:100CC0000CF40CE01E4FB7FBF3F7DFF870C0ACF18B
:100CD000040CDCF800C0CCF3881C07FB0CF4174FA5
:100CE0003F1F3F68C7F301477F1C7D00B4FBF5F74A
:100CF000076002E0124F076000BF00BF0F4F3F6860
:100D000007F0F0010909104F7A5C0768D740476087
:100D10000A4F3F6807F4E051890A0B4F7A5C476835
:100D2000D7408760054F3F6807F46041490B064F85
:100D30007A5C4768D740C760F0BD000008380240C1
:100D40000024F40040787D0100000020F0B5044646
:100D50000D46002600212943C4F104070120B840B4
:100D6000014341EA421141EA43210948016005E09B
:100D7000761CB6F5001F01D30120F0BD04480830F1
:100D8000006800F020000028F2D100BFF5E7000065
:100D9000500100A001B581B00020009041F28831DF
:100DA00001984843009002E00098401E009000988F
:100DB0000028F9D10CBD00000CB500200190009076
:100DC0004148006840F480303F49086000BF3E4819
:100DD000006800F4003000900198401C01900098D9
:100DE00018B90198B0F5A04FF1D13748006800F468
:100DF000003010B10120009001E000200090009828
:100E0000012860D130484030006840F080502E49C1
:100E1000403108602D48006840F440402B4908608C
:100E200029480830006828490831086008460068E9
:100E300040F4004008600846006840F4A050086094
:100E40002348091F0860081F006840F08070091FD0
:100E5000086000BF1C48006800F000700028F9D04E
:100E60001A48006840F480301849086000BF1748ED
:100E7000406800F480300028F9D01448006840F43D
:100E800000301249086000BF1048406800F400308C
:100E90000028F9D040F205700E4908600A48083071
:100EA000006820F00300084908310860084600681F
:100EB00040F00200086000BF03480830006800F0FE
:100EC0000C000828F8D10CBD00380240007000402A
:100ED000195A4007003C024010B502F0E3FC01281B
:100EE00001D002F065F910BD10B51548006840F456
:100EF0007000134908601348006840F00100114970
:100F0000086000200F49083108600E4800680E494B
:100F100008400C4908600D48091D0860081F00685A
:100F200020F48020091F0860002006490C31086069
:100F3000FFF742FF4FF0006001498039086010BDA3
:100F400088ED00E000380240FFFFF6FE103000247C
:100F500004E0642001F014FE01F036FCF9E721B151
:100F6000828942F40052828104E082894DF6FF7347
:100F70001A408281704702460020B1F5007F00D1FF
:100F800000BF13880B400BB1012000E00020704728
:100F9000F0B50346002400260025002040F66A171D
:100FA000B94200D100BF1846C1F3421401F01F0638
:100FB000012707FA06F5012C01D10C3004E0022CC0
:100FC00001D1103000E014301AB107682F430760D8
:100FD00002E00768AF430760F0BD00002DE9FF475E
:100FE00005460E460024A14600BFA046B08900B1C8
:100FF00000BF2C8A24F44054F08804432C82AC892E
:1010000041F20C608443B0883189084371890843F8
:101010000443AC81AC8A24F44074B0890443AC82AC
:101020006846FFF71FFE2048854202D01F488542D0
:1010300002D1DDF80C9001E0DDF80890A88900F4F9
:10104000004040B109EBC90000EB091031684900CC
:10105000B0FBF1F707E009EBC90000EB09103168BC
:101060008900B0FBF1F76420B7FBF0F00401200920
:10107000642101FB1078A88900F4004040B13220BF
:1010800000EBC800B0FBF1F000F00700044308E0FB
:10109000322000EB08106421B0FBF1F000F00F00EB
:1010A00004432C81BDE8FF8700100140001401407B
:1010B000C1F308028280704700BFFEE70FB4054B02
:1010C00010B503A9044A029800F018F810BC5DF8A6
:1010D00014FB0000B5120008B400002002E008C8AC
:1010E000121F08C1002AFAD170477047002001E0A2
:1010F00001C1121F002AFBD1704700002DE9FF4FEC
:101100008BB09A460F460546002606E025280BD0F0
:1011100052460D9990476D1C761C28780028F5D111
:101120000FB03046BDE8F08F0024A0460122604990
:1011300000E0044315F8013F203B02FA03F00842A7
:10114000F7D128782E2817D115F8010F44F00404A0
:101150002A280ED06FF02F022878A0F1300109293B
:101160000AD808EB880102EB410100EB01086D1C75
:10117000F2E757F8048B6D1C287869283ED006DC0E
:101180000028CDD063280BD0642804D136E0732822
:1011900010D075284BD052460D999047761C85E0AB
:1011A00017F8040B8DF8000000208DF80100E946C7
:1011B000012003E057F8049B4FF0FF3061074FF028
:1011C000000401D40AE0641C44450DDA8442FADBD1
:1011D00019F804100029F6D106E0641C8442FCDBF7
:1011E00019F804100029F8D1264404E019F8010B7D
:1011F00052460D999047641EF8D257E001CF4FF048
:101200000A0B002802DA40422D2102E0210504D514
:101210002B218DF82410012103E0E10705D02021C6
:10122000F7E70DF1200908910CE00021F9E701CF63
:101230004FF00A0BF9E75946FFF750F801F1300279
:1012400009F8012D0028F6D1ADEB090000F1200BC3
:10125000600701D44FF00108D84502DDA8EB0B0070
:1012600000E000208046002406E009A85246005D08
:101270000D999047641C761C08988442F5DB04E0C5
:10128000302052460D999047761CB8F10001A8F124
:101290000108F5DC05E019F8010B52460D9990475D
:1012A000761CBBF10001ABF1010BF4DC6D1C34E7E3
:1012B0000928010070B504460D46E1B20548FFF764
:1012C000F7FE00BF80210348FFF755FE0028F9D044
:1012D000204670BD0010014010B5FFF78BFCFFF7F2
:1012E000F3FB00F0CFF84FF4E13000F03DFA00F0EE
:1012F0005BFA00F005F8012001F050FA10BD000083
:101300001FB500245948006840F0806057490860C4
:101310000815574908604FF416704860142008817A
:10132000032048818C2088811420C881A020088255
:101330000C204882012202214FF4B470FFF7B8F963
:1013400000BF00BF00BF00BF4A4804604848408952
:10135000441E47480089401E44EA0044454810386E
:101360000460434840894249C9890844441E4048B2
:1013700000893F4989890844401E44EA00443D48A9
:101380000C3804603A4840893949C98908443849C9
:1013900049680844441E364800893549898908440B
:1013A000334909880844401E44EA0044314808385B
:1013B00004602F4840892E49C98908442C4949684E
:1013C00008442B49498A0844441E29480089284971
:1013D000898908442649098808442549098A084416
:1013E000401E44EA00442348001F046000202149B5
:1013F000143108601F48006840F001001D49086072
:101400001D481E49086002201949C86100200721B3
:101410000622CDE90002CDE902101848FF2302227E
:1014200001680020FFF734FA1148808880B20090EC
:101430000F48008883B2002211461046FFF79CFA3D
:101440000B4800880E4908800948808848800020A1
:1014500007490875401EFFF7F7F80120FFF706F966
:101460004FF6FF70FFF7F0F81FBD00004438024050
:101470001494002018680140000000C0A80000205B
:10148000349400201CB500208DF8060001208DF852
:10149000070002208DF805008DF80400000200907E
:1014A0006946AA48FFF733F807220921A748FFF742
:1014B00076F802208DF80400400200906946A348A7
:1014C000FFF725F807220A21A048FFF768F8022055
:1014D0008DF804002020009069469D48FFF717F81A
:1014E000072205219A48FFF75AF802208DF80400D8
:1014F0004020009069469648FFF709F80722062128
:101500009348FFF74CF802208DF805008DF8040091
:1015100000208DF806008DF807004FF40070009051
:1015200069468C48FEF7F3FF0E2209218948FFF730
:1015300036F84FF48060009069468648FEF7E7FF72
:101540000E220A218348FFF72AF84FF4006000902A
:1015500069468048FEF7DBFF0E220B217D48FFF72E
:101560001EF84FF48050009069467A48FEF7CFFF8E
:101570000E220C217748FFF712F8402000906946B0
:101580007548FEF7C4FF0E2206217348FFF707F8DF
:101590004FF40050009069466E48FEF7B8FF0E22E7
:1015A0000D216C48FEF7FBFF4FF480400090694628
:1015B0006848FEF7ACFF0E2211466648FEF7EFFFC3
:1015C0004FF40040009069466248FEF7A0FF0E22EB
:1015D0000F216048FEF7E3FF0120009069465F4855
:1015E000FEF795FF0E2200215C48FEF7D8FF02208F
:1015F000009069465948FEF78AFF0E22012157489C
:10160000FEF7CDFF0420009069465448FEF77FFFA7
:101610000E2202215148FEF7C2FF4FF400600090F5
:1016200069464D48FEF773FF0E220B214A48FEF72C
:10163000B6FF1020009069464848FEF768FF0E226A
:1016400004214648FEF7ABFF20200090694643483E
:10165000FEF75DFF0E2205214048FEF7A0FF402067
:10166000009069463D48FEF752FF0E2206213B4896
:10167000FEF795FF8020009069463848FEF747FF47
:101680000E2207213548FEF78AFF4FF400700090C4
:1016900069463248FEF73BFF0E2209212F48FEF72C
:1016A0007EFF4FF48060009069462C48FEF72FFFC4
:1016B0000E220A212948FEF772FF80200090694619
:1016C0002548FEF724FF0E2207212348FEF767FF77
:1016D0004FF48060009069462148FEF718FF0E2203
:1016E0000A211F48FEF75BFF01208DF8040020202F
:1016F000009069461B48FEF70AFF01208DF80400A0
:10170000C003009069461148FEF701FF4FF4004105
:101710000E48FEF769FF01208DF8040000208DF8C7
:1017200007000120009069460E48FEF7F0FE0121F7
:101730000C48FEF759FF0220009069460948FEF761
:10174000E6FE02210748FEF74FFF1CBD00000240E5
:10175000000C0240001C0240001802400020024021
:1017600000140240000402401FB50446009400200B
:10177000ADF80400ADF80600ADF80800ADF80C00B7
:101780000C20ADF80A0069460648FFF727FC012245
:1017900040F225510348FFF7FBFB01210148FFF709
:1017A000DEFB1FBD001001401CB502208DF80400B7
:1017B0008DF8050000208DF806008DF80700012047
:1017C00000906946E048FEF7A2FE0C220021DE48A8
:1017D000FEF7E5FE022000906946DB48FEF797FE23
:1017E0000C220121D848FEF7DAFE04200090694659
:1017F000D548FEF78CFE0C220221D348FEF7CFFE1F
:10180000082000906946D048FEF781FE0C22032193
:10181000CD48FEF7C4FE102000906946CA48FEF786
:1018200076FE0C220421C848FEF7B9FE2020009065
:101830006946C548FEF76BFE0C220521C248FEF73B
:10184000AEFE4FF4805000906946BF48FEF75FFE41
:101850000C221146BC48FEF7A2FE4FF40050009047
:101860006946B948FEF753FE0C220D21B648FEF733
:1018700096FE4FF4804000906946B348FEF747FE5D
:101880000C220E21B048FEF78AFE4FF40040009073
:101890006946AD48FEF73BFE0C220F21AA48FEF731
:1018A0007EFE012000906946A848FEF730FE0C221B
:1018B0000021A648FEF773FE022000906946A34867
:1018C000FEF725FE0C220121A048FEF768FE042049
:1018D000009069469D48FEF71AFE0C2202219B48A3
:1018E000FEF75DFE1020009069469848FEF70FFE57
:1018F0000C2204219548FEF752FE202000906946F4
:101900009248FEF704FE0C2205219048FEF747FEA0
:101910004FF48040009069468D48FEF7F8FD0C2298
:101920000E218B48FEF73BFE4FF4004000906946C5
:101930008748FEF7ECFD0C220F218548FEF72FFEAD
:101940000120009069468248FEF7E1FD0C2200214B
:101950007F48FEF724FE0220009069467C48FEF78F
:10196000D6FD0C2201217A48FEF719FE8020009056
:1019700069467848FEF7CBFD0C2207217548FEF733
:101980000EFE4FF48070009069467248FEF7BFFD6E
:101990000C2208216F48FEF702FE4FF40070009001
:1019A00069466C48FEF7B3FD0C2209216948FEF731
:1019B000F6FD4FF48060009069466648FEF7A7FD8B
:1019C0000C220A216348FEF7EAFD4FF40060009004
:1019D00069466048FEF79BFD0C220B215D48FEF72F
:1019E000DEFD4FF48050009069465A48FEF78FFDA7
:1019F0000C2211465748FEF7D2FD4FF400500090DC
:101A000069465448FEF783FD0C220D215148FEF72C
:101A1000C6FD4FF48040009069464E48FEF777FDC2
:101A20000C220E214B48FEF7BAFD4FF40040009007
:101A300069464848FEF76BFD0C220F214548FEF72A
:101A4000AEFD4FF48070009069464148FEF75FFD9F
:101A50000C2208213E48FEF7A2FD4FF400700090D2
:101A600069463B48FEF753FD0C2209213848FEF732
:101A700096FD4FF48060009069463548FEF747FDBB
:101A80000C220A213248FEF78AFD042000906946A4
:101A90003148FEF73CFD0C2202212F48FEF77FFD66
:101AA0000120009069462C48FEF731FD0C220021F0
:101AB0002948FEF774FD4FF4006000906946224803
:101AC000FEF725FD0C220B211F48FEF768FD4FF4A1
:101AD0000040009069461D48FEF719FD0C220F21B9
:101AE0001A48FEF75CFD4FF4807000906946174875
:101AF000FEF70DFD0C2208211448FEF750FD0820CA
:101B0000009069461448FEF702FD0C22032112489A
:101B1000FEF745FD0220009069460E48FEF7F7FCEF
:101B20000C2201210B48FEF73AFD01200090694686
:101B30000848FEF7ECFC0C2200210648FEF72FFDBA
:101B4000FEF77EFC1CBD000000140240001802409D
:101B5000000C024000100240000802401CB50124A5
:101B6000FFF7BAFB00F098FE0CA0FFF7A7FA00F011
:101B7000D7FE1448012100234A02CDE9001012A12A
:101B8000154801F05FFE0446012C02D101F0A8F9CE
:101B900002E04FF0FF301CBD00BFFEE70D0A202A17
:101BA0002A2A2A2A2A2A2A2A2A20656D77696E205B
:101BB00044454D4F202A2A2A2A2A2A2A2A2A2A2A12
:101BC000200D0A00980000204170705461736B432F
:101BD00072656174650000002D0300082DE9F04175
:101BE00005460E461C4807681C480068001D00F0AA
:101BF00009FE50B91948006890F82C10012088405F
:101C000017490968814316480160681C38B936B124
:101C100012480168091D134800F032FE1AE07C19D1
:101C20000E4800684460BC4207D20C480168091D98
:101C30000D48006800F00AFE0CE008480168091D24
:101C40000A48006800F002FE09480068844201D298
:101C500007480460BDE8F0814800002034000020FF
:101C60004C000020D89300203C00002038000020C9
:101C70006400002010B5044600F00EFE2348006802
:101C8000401C224908602248006840B9204804608E
:101C90000846006801280DD100F0E6F90AE01D4869
:101CA000006838B91A480068C06AE16A884201D8F9
:101CB0001748046018480068401C1749086094F8E9
:101CC0002C10012088401549096808431349086011
:101CD000E16A01EB8101124A02EB8100211D00F053
:101CE000CFFD00F01DFE0B48006868B10848006891
:101CF000C06AE16A884207D24FF080500949086003
:101D0000BFF34F8FBFF36F8F10BD00004400002062
:101D10003400002050000020600000204C00002013
:101D20000891002004ED00E010B500F0B5FD10486A
:101D30000068D0B90F4800F079FD0F4800F076FD3B
:101D40000C480E4908600C480D49086000220C211F
:101D50000A2001F047FA064908600846006820B1E9
:101D600008A10348006800F0CFFE00F0D9FD10BDC7
:101D700078000020EC9300200094002070000020E8
:101D800074000020546D72510000000070B523E013
:101D900001F000F91348006808B9012000E00020B4
:101DA000054601F017FFBDB900F076FD0D48C0688B
:101DB000C468201D00F026FD0B480068401E0A493B
:101DC00008600A480068401E0849086000F0A8FD45
:101DD000204600F060F800BF044800680028D7D112
:101DE00070BD0000C493002044000020400000208B
:101DF00070B504460D46206C70B1216CE068084453
:101E0000E0606168E068884201D32068E0602846AD
:101E1000226CE168FEF742FA70BD2DE9F0410446FC
:101E20000F4615464FF00008A66B206C40B920689D
:101E300060BB606801F000FE80460020606025E025
:101E40007DB93946226CA068FEF728FA216CA0689B
:101E50000844A060D4E90110884217D32068A0602C
:101E600014E03946226CE068FEF718FA216CE0684D
:101E7000401AE0602168E068884203D2216C606803
:101E8000401AE060022D01D106B1761E701CA063DD
:101E90004046BDE8F08110B50446206B00F078FDA7
:101EA000204600F075FD10BD0146084A1268126810
:101EB0000AB9012200E000220A600A6822B9034A36
:101EC0001268D268106800E000207047700000209F
:101ED00030B54FF41043174800F007042CB1C01D73
:101EE00020F00700134C041B1B1B0246124C2260FF
:101EF0000024114D6C60D018083820F007000F4CFA
:101F0000206000240D4D2D686C600C4D2D682C60F8
:101F10001146441A4C60094C24680C60084D4C680A
:101F20002C60084D4C682C604FF00044064D2C602E
:101F300030BD0000B8000020100000201800002074
:101F4000200000201C0000202400002000BFFFF71C
:101F50001DFF064800680128F9D94FF08050044958
:101F60000860BFF34F8FBFF36F8FF0E70891002039
:101F700004ED00E02DE9F04106460D46174698466F
:101F8000069C0DB9246000E02760E663256401210A
:101F9000204601F04DFABDE8F08100002DE9FF5F19
:101FA00081460F469246DDE90E6B109CAAF10100B6
:101FB000216B01EB800828F0070808F0070008B93A
:101FC000012000E0002028B940F22B321BA122A002
:101FD000FFF774F8002507E0795D04F134004155FE
:101FE000785D00B902E06D1C102DF5D300BF002113
:101FF00043200155202E00D31F26E6626664002090
:10200000A064201D00F01FFC04F1180000F01BFC70
:102010002461C6F12000A06164620020E06484F8BD
:10202000500049464046039A00F0A2FB2060BBF1F5
:10203000000F01D0CBF80040BDE8FF9F2E2E5C2E94
:102040002E5C4672656552544F535C7372635C74C8
:1020500061736B732E6300004572726F723A257361
:102060002C25640D0A00000010B5002407E004EBE5
:1020700084010F4A02EB810000F0D8FB641C202C85
:10208000F5D30C4800F0D2FB0B4800F0CFFB0B4817
:1020900000F0CCFB0A4800F0C9FB0A4800F0C6FB80
:1020A00004480949086004480849086010BD000058
:1020B00008910020889300209C930020B09300207A
:1020C000C4930020D8930020380000203C0000205A
:1020D00010B50146164800E0006803688B42FBD348
:1020E0000246436813448B4204D143684C6823443E
:1020F000436001460A464B6813440468A34211D169
:102100000C4C03682468A34208D04B6804686468D8
:1021100023444B6003681B680B6005E0054B1B689C
:102120000B6001E003680B60884200D0016010BDC5
:1021300010000020180000202DE9F04104460D4653
:1021400016461F464FF0000865602461B5420CD862
:10215000F01BA169884202D34FF0010811E0211D54
:102160000948006800F072FB0BE0BE4204D2BD4299
:1021700002D34FF0010804E0211D0448006800F07C
:1021800065FB4046BDE8F08174000020700000202F
:1021900070B5054600F080FBA86B08B9012400E08B
:1021A000002400F0BDFB204670BD70B5054600F070
:1021B00073FBA86BE96B884201D1012400E0002485
:1021C00000F0AEFB204670BDF8B505460F4613483B
:1021D0000068C068C468201D00F014FBE069012895
:1021E00018D1A06941192B463A462046FFF7A4FFB3
:1021F00080B1002003462A4601460090204601F0A7
:10220000B9FD06462EB94FF4027205A10BA0FEF7E8
:1022100055FF00BF2046616A8847F8BD7000002066
:102220002E2E5C2E2E5C4672656552544F535C73A5
:1022300072635C74696D6572732E63004572726FB0
:10224000723A25732C25640D0A00000070B586B023
:1022500060E0039800285DDB059C606908B90120F7
:1022600000E0002010B9201D00F0CCFA02A800F018
:10227000C9F8054603980A284AD2DFE800F00905A4
:10228000072C2E4506082D2F00BF00BF00BF00BF42
:102290000498A269811803462A462046FFF74CFF9E
:1022A000C0B12046616A8847E069012812D1002048
:1022B00000900498A169421800231946204601F0B5
:1022C00059FD06462EB940F2213218A11EA0FEF794
:1022D000F5FE00BF1DE000BF1BE000BF0498A06139
:1022E000A06908B1012000E0002028B94FF44E7227
:1022F0000EA115A0FEF7E2FEA06941192B462A4661
:102300002046FFF719FF04E0204600F041FB00E003
:1023100000BF00BF00231A4603A90F48006800F061
:102320009FFF002895D106B070BD00002E2E5C2EB8
:102330002E5C4672656552544F535C7372635C74D5
:10234000696D6572732E63004572726F723A257300
:102350002C25640D0A00000078000020F8B5054621
:102360000C4600F017FE684600F04CF80646009850
:1023700020BB44B9B54206D801F02CFC31462846B2
:10238000FFF722FF1CE03CB10E480068006808B966
:10239000012000E000200446A91B22460A480068EC
:1023A00000F0C8FB01F016FC50B94FF0805007490F
:1023B0000860BFF34F8FBFF36F8F01E001F00AFC9D
:1023C000F8BD0000740000207800002004ED00E05B
:1023D0000A490968096809B9012100E0002121B111
:1023E0004FF0FF31064A116006E004490968C968E8
:1023F000C868034A41681160704700003800002037
:102400006400002070B5044601F05CFA05460748F8
:102410000068854204D200F00BF80120206001E042
:102420000020206001480560284670BD8000002023
:102430002DE9F8432DE021480068C06805681F4871
:102440000068C068C468201D00F0DCF92046616A9D
:102450008847E06901281CD1A0694619AE4207D916
:1024600066602461211D1548006800F0EFF910E056
:10247000002003462A4601460090204601F07AFCDF
:1024800007462FB940F292320DA114A0FEF716FEB6
:1024900000BF0A480068006808B9012000E0002079
:1024A0000028C8D00548D0F80080104800680349CB
:1024B00008600E48C0F80080BDE8F8837000002076
:1024C0002E2E5C2E2E5C4672656552544F535C7303
:1024D00072635C74696D6572732E63004572726F0E
:1024E000723A25732C25640D0A0000007400002048
:1024F0000C480068401C08B9012000E0002028B901
:1025000040F20F1208A113A0FEF7D8FD00BF502023
:1025100080F31188BFF34F8FBFF36F8F00BF00BFF1
:10252000FEE70000280000202E2E5C2E2E5C467256
:10253000656552544F535C706F72745C52564453CD
:102540005C41524D5F434D34465C706F72742E6334
:10255000000000004572726F723A25732C25640DDD
:102560000A00000008B500BF6846FFF79DFC04465E
:1025700020460099FFF7F2FEFFF768FEF4E770B51A
:10258000044600F089F994F9455010E0606A08B9F2
:10259000012000E0002038B904F1240001F0BCFA69
:1025A00018B100F0B5FB00E003E0681E45B2002D55
:1025B000ECDC00BFFF2084F8450000F0B1F900F02A
:1025C0006BF994F9445010E0206908B9012000E04B
:1025D000002048B904F1100001F09EFA08B100F0A3
:1025E00097FB681E45B200E001E0002DECDC00BF67
:1025F000FF2084F8440000F093F970BD2DE9F0410C
:1026000004464FF0000800F0C5FC3E48006808B9D9
:10261000FFF75EFC3C480068204000285FD1A4B171
:10262000083404F0070080B104F00700C0F108008E
:10263000044404F0070008B9012000E0002020B99C
:10264000BF2232A13BA0FEF739FD002C47D03D4808
:102650000068844243D83C4E3046056801E02E466F
:102660002D686868A04202D228680028F7D1254862
:102670000068854233D0306800F10808286830606F
:102680006868001B102813D92F1907F0070008B934
:10269000012000E0002020B9EC221CA125A0FEF7BB
:1026A0000DFD6868001B78606C603846FFF710FD10
:1026B000244968680968081A2249086008460068C1
:1026C00022490968884203D21E4800681F490860F1
:1026D0000D4968680968084368600020286001F0B7
:1026E00079FA08F0070008B9012000E0002028B9B5
:1026F0004FF4967205A10FA0FEF7E0FC4046BDE83E
:10270000F081000018000020240000202E2E5C2EF6
:102710002E5C4672656552544F535C706F72745CE8
:102720004D656D4D616E675C686561705F342E63E9
:10273000000000004572726F723A25732C25640DFB
:102740000A0000001C0000201000002020000020D3
:102750000648006830B10549096801F14800896CF4
:10276000491C0160014800687047000034000020E7
:10277000001F4FF080730360001F21F0010303600E
:10278000001F054B036014380260001F6FF0020346
:102790000360203870470000F124000810B504469B
:1027A000012C04D120210448FDF71EFF03E0202165
:1027B0000148FDF717FF10BD0004024001490870F1
:1027C00070470000B000002010B50B4800780128C9
:1027D00011D10A48008838B901210948FDF704FFE2
:1027E00001200649088006E001210548FDF7FAFEB0
:1027F00000200249088010BDB0000020B200002077
:102800000004024001460A69D1E901309860D1E92B
:10281000010358605068884201D1886850600020E8
:1028200008611068401E10601068704700F10801D0
:1028300041604FF0FF31816000F10801C16001612A
:1028400000210160704700210161704710B5024608
:102850000B685C1C0CB9106907E002F1080000E08D
:102860004068446824689C42FAD944684C604C68CB
:10287000A160886041600A611468641C146010BD26
:1028800042684A6093688B60936859609160086100
:1028900003685B1C0360704710B500BF502080F3D5
:1028A0001188BFF34F8FBFF36F8F00BF0B480068D5
:1028B000401C0A4908600846006801280DD10848F4
:1028C0000068C0B208B9012000E0002028B940F239
:1028D000B91204A10EA0FEF7F1FB10BD28000020E4
:1028E00004ED00E02E2E5C2E2E5C4672656552547F
:1028F0004F535C706F72745C525644535C41524D3E
:102900005F434D34465C706F72742E6300000000AC
:102910004572726F723A25732C25640D0A0000000F
:1029200010B50B48006828B94FF4E07209A114A053
:10293000FEF7C4FB06480068401E054908600846CB
:10294000006820B9002080F3118800BF00BF10BDCF
:10295000280000202E2E5C2E2E5C46726565525497
:102960004F535C706F72745C525644535C41524DCD
:102970005F434D34465C706F72742E63000000003C
:102980004572726F723A25732C25640D0A0000009F
:1029900070B506463546002E35D0083D2C461A49FE
:1029A00060680968084008B1012000E0002028B9EB
:1029B0004FF4A07215A11FA0FEF780FB206808B994
:1029C000012000E0002028B940F241120FA119A017
:1029D000FEF774FB0C4960680968084098B12068EC
:1029E00088B90949606809688843606000F0D2FAD4
:1029F0001449606809680844124908602046FFF7D6
:102A000067FB01F0E7F870BD240000202E2E5C2E3D
:102A10002E5C4672656552544F535C706F72745CE5
:102A20004D656D4D616E675C686561705F342E63E6
:102A3000000000004572726F723A25732C25640DF8
:102A40000A0000001C000020064800684FF47A715C
:102A5000B0FBF1F0401E4FF0E02148610720086113
:102A6000704700008400002070B5FDF701FC0546AA
:102A7000102D11D305F1E02090F8F04310480078B4
:102A8000844201DB012000E0002028B94FF44072AD
:102A90000CA117A0FEF712FB1948006800F4E060D3
:102AA00018490968884201D8012000E0002028B9AF
:102AB0004FF4447203A10EA0FEF700FB70BD0000AE
:102AC0002C0000202E2E5C2E2E5C46726565525422
:102AD0004F535C706F72745C525644535C41524D5C
:102AE0005F434D34465C706F72742E6300000000CB
:102AF0004572726F723A25732C25640D0A0000002E
:102B00000CED00E030000020024600200BE0084BF6
:102B100053F8303033B9064B43F8301003EBC003A1
:102B20005A6002E0401C0A28F1D300BF7047000041
:102B3000B89000202DE9F04105460E4617462C4678
:102B4000FFF7AAFE94F94400401C10B9002084F855
:102B5000440094F94500401C10B9002084F8450059
:102B6000FFF7DEFEA06B28B93A46314604F1240097
:102B700000F002F92046FFF702FDBDE8F0810000F9
:102B800070B504460025ACB10F48006808B90120B3
:102B900000E0002028B940F2CF420CA112A0FEF7BD
:102BA0008DFA00F0F7F900212046FFF717F801F041
:102BB00011F805463DB94FF080500F490860BFF34A
:102BC0004F8FBFF36F8F70BD6C0000202E2E5C2ED8
:102BD0002E5C4672656552544F535C7372635C742D
:102BE00061736B732E6300004572726F723A2573C6
:102BF0002C25640D0A00000004ED00E070B50546C8
:102C0000FFF74AFE15B92D48006800E02846044643
:102C1000201DFFF7F7FD78B9E06A00EB8000284936
:102C200051F8200040B994F82C1001208840254923
:102C30000968814323480160A06A18B104F11800B3
:102C4000FFF7E0FD20480068401C1F4908601B4852
:102C50000068844209D1211D1C48FFF711FE1C4861
:102C60000068401C1A49086009E01A480068401EC4
:102C7000184908602046FFF70EF9FFF7A9FBFFF798
:102C80004FFE15480068C0B10C480068844214D15A
:102C90001248006808B9012000E0002028B940F27D
:102CA00065420FA115A0FEF709FA4FF080501749B1
:102CB0000860BFF34F8FBFF36F8F70BD34000020EB
:102CC000089100204C00002060000020C4930020E8
:102CD0004000002044000020500000206C00002034
:102CE0002E2E5C2E2E5C4672656552544F535C73DB
:102CF00072635C7461736B732E6300004572726F54
:102D0000723A25732C25640D0A00000004ED00E0E2
:102D100001200149086070475800002070B5044642
:102D20000D462CB940F6063207A10EA0FEF7C6F9F3
:102D30001048016818312046FFF788FD0121284618
:102D4000FEF74CFF70BD00002E2E5C2E2E5C4672EE
:102D5000656552544F535C7372635C7461736B733B
:102D60002E6300004572726F723A25732C25640D34
:102D70000A0000003400002070B505460E461446D7
:102D80002DB940F6313209A10FA0FEF797F912488C
:102D9000016818312846FFF773FD0CB14FF0FF367C
:102DA00021463046FEF71AFF70BD00002E2E5C2E25
:102DB0002E5C4672656552544F535C7372635C744B
:102DC00061736B732E6300004572726F723A2573E4
:102DD0002C25640D0A0000003400002070B5054663
:102DE0002C46002D4BD02649E06A0968C96A884202
:102DF00045D2A06900F0004028B921480068C06AA7
:102E0000C0F12000A061E16A01EB81011D4A02EBE3
:102E100081016069884201D1012000E0002050B3A7
:102E2000201DFFF7EFFC78B9E06A00EB8000154940
:102E300051F8200040B994F82C1001208840124924
:102E400009688143104801600D480068C06AE0626B
:102E500094F82C10012088400B49096808430A495E
:102E60000860E16A01EB8101064A02EB8100211D45
:102E7000FFF706FD03E002480068C06AE06270BD2B
:102E800034000020089100204C00002010B50446BA
:102E90002CB940F6C13205A10BA0FEF70FF90E4880
:102EA000006820600D480068606010BD2E2E5C2E0A
:102EB0002E5C4672656552544F535C7372635C744A
:102EC00061736B732E6300004572726F723A2573E3
:102ED0002C25640D0A0000005C0000204800002042
:102EE0001CB51A4800210B468022CDE9001018A11C
:102EF000194800F0A7FC0446012C02D100F0FEFEA8
:102F00000446012C15D100BF502080F31188BFF377
:102F10004F8FBFF36F8F00BF4FF0FF300F49086036
:102F200001200F49086000200E49086000F092F867
:102F30000BE0601C08B1012000E0002028B940F23D
:102F4000847209A10FA0FEF7B9F81CBD680000202B
:102F500049444C45000000004D1F0008640000205B
:102F600050000020480000202E2E5C2E2E5C467261
:102F7000656552544F535C7372635C7461736B7319
:102F80002E6300004572726F723A25732C25640D12
:102F90000A00000002480068401C014908607047B0
:102FA0006C00002010B51B48006818B101201A49B8
:102FB00008602DE000201849086018480068B0FA41
:102FC00080F0C0F11F0404EB8400154951F8200083
:102FD00008B1012000E0002028B940F6F62211A136
:102FE00017A0FEF76BF804EB84010D4A02EB810099
:102FF00041684968416000F1080142688A4202D193
:103000004168496841604168C968114A116000BF60
:1030100010BD00006C000020580000204C00002073
:10302000089100202E2E5C2E2E5C4672656552544F
:103030004F535C7372635C7461736B732E63000037
:103040004572726F723A25732C25640D0A000000D8
:10305000340000201CB5404800684049884201D037
:10306000012000E0002028B940F259123CA147A0FD
:10307000FEF724F8384800683849491E884201D0D4
:10308000012000E0002028B94FF4AD7234A13FA028
:10309000FEF714F8414C204600780190FF202146AD
:1030A00008700846007800909DF8000000F0F000DD
:1030B0009DF80010884201D1012000E0002028B9CD
:1030C00040F2731226A131A0FDF7F8FF9DF8000031
:1030D00000F050003249087007203249086009E0CA
:1030E00030480068401E2F4908609DF800004006E7
:1030F000000E00909DF8000000F080008028EFD0C6
:10310000284800680002274908600846008800F443
:10311000E06008602149019808700F48203000687D
:1031200040F470000C49203108600846006840F007
:1031300070400860FFF788FC00201B490860FDF71D
:103140005FF81A48006840F0404018490860FDF7F1
:1031500047F800201CBD000000ED00E071C20F41E7
:103160002E2E5C2E2E5C4672656552544F535C7059
:103170006F72745C525644535C41524D5F434D3400
:10318000465C706F72742E63000000004572726FAF
:10319000723A25732C25640D0A00000000E400E05B
:1031A0002C000020300000202800002034EF00E038
:1031B00010B500BF502080F31188BFF34F8FBFF3CD
:1031C0006F8F00BF00F084FB18B14FF080500449AE
:1031D000086000BF002080F3118800BF10BD000010
:1031E00004ED00E02DE9F84305460E4690460DB18A
:1031F000012000E0002028B94FF4C4720DA114A0F2
:10320000FDF75CFF0EB9002701E005FB06F707F1AB
:103210004800FFF7F3F9044644B104F14809434676
:103220004A46314628460094FEF7A4FE2046BDE8F3
:10323000F88300002E2E5C2E2E5C4672656552547B
:103240004F535C7372635C71756575652E63000026
:103250004572726F723A25732C25640D0A000000C6
:103260002DE9FF4782B005460E461F464FF0000A83
:103270002C462CB940F2DC4261A168A0FDF71EFF8C
:103280000EB9206C08B9012000E0002028B940F2F6
:10329000DD425BA161A0FDF711FF00F003FB08B95F
:1032A000049808B9012000E0002028B94FF49C627E
:1032B00053A15AA0FDF702FF00BFFFF7EDFAD4F8C3
:1032C0003890B9F1000F3DD0D4F80C80314620463B
:1032D000FEF78EFDDFB9A9F10100A063206810B9E7
:1032E000FFF736FA6060206908B9012000E000208D
:1032F00010BB04F1100000F00FFCE8B14FF080505B
:103300004A490860BFF34F8FBFF36F8F14E0C4F8D2
:103310000C80606A08B9012000E0002060B904F167
:10332000240000F0F9FB38B14FF080503F490860AD
:10333000BFF34F8FBFF36F8FFFF7F2FA012006B094
:10334000BDE8F087049818B9FFF7EAFA0020F6E71D
:10335000BAF1000F04D16846FFF798FD4FF0010A5B
:10336000FFF7DEFAFFF716FEFFF796FA94F944002E
:10337000401C10B9002084F8440094F94500401C1A
:1033800010B9002084F84500FFF7CAFA04A968467E
:1033900000F004FA40BB2046FEF7FAFEF0B12068C8
:1033A00030B9FFF779FA6068FFF718FDFFF7B8FA50
:1033B00004F124000499FFF7B1FC2046FFF7DFF881
:1033C00000F008FC00287FF478AF4FF080501749D8
:1033D0000860BFF34F8FBFF36F8F6EE72046FFF794
:1033E000CEF800F0F7FB68E72046FFF7C8F800F0DA
:1033F000F1FB2046FEF7CCFE0028EED000209EE731
:103400002E2E5C2E2E5C4672656552544F535C73B3
:1034100072635C71756575652E6300004572726F2D
:10342000723A25732C25640D0A00000004ED00E0BB
:1034300070B505460E462C462CB940F21B121EA153
:1034400024A0FDF73BFEFFF727FAD4E90F1220680E
:1034500001FB020060600020A0632068A060E06BB8
:10346000401E226C216800FB0210E060FF2084F8FF
:10347000440084F845009EB9206908B9012000E0A5
:103480000020A8B904F1100000F046FB80B14FF015
:10349000805014490860BFF34F8FBFF36F8F07E070
:1034A00004F11000FFF7C2F904F12400FFF7BEF9A0
:1034B000FFF736FA012070BD2E2E5C2E2E5C467270
:1034C000656552544F535C7372635C7175657565C5
:1034D0002E6300004572726F723A25732C25640DBD
:1034E0000A00000004ED00E02DE9FF4383B006462A
:1034F00088461D464FF0000934462CB940F2D922C7
:1035000058A15FA0FDF7DAFDB8F1000F01D1206CE2
:1035100008B9012000E0002028B940F2DA2251A1C8
:1035200057A0FDF7CBFD022D02D1E06B012801D1A0
:10353000012000E0002028B940F2DB2249A150A080
:10354000FDF7BCFD00F0AEF908B9059808B90120F7
:1035500000E0002028B940F2DE2242A148A0FDF799
:10356000ADFD00BFFFF798F9A06BE16B884201D376
:10357000022D28D12A4641462046FEF74EFC07463A
:10358000606A08B9012000E0002068B904F1240055
:1035900000F0C2FA88B14FF080503D490860BFF397
:1035A0004F8FBFF36F8F08E03FB14FF08050384925
:1035B0000860BFF34F8FBFF36F8FFFF7B1F90120A2
:1035C00007B0BDE8F083059818B9FFF7A9F9002006
:1035D000F6E7B9F1000F04D101A8FFF757FC4FF04F
:1035E0000109FFF79DF9FFF7D5FCFFF755F994F9AD
:1035F0004400401C10B9002084F8440094F94500B0
:10360000401C10B9002084F84500FFF789F905A98E
:1036100001A800F0C3F8F0B92046FEF7C6FDA0B13E
:1036200004F110000599FFF779FB2046FEF7A7FF8C
:1036300000F0D0FA002895D14FF08050144908606E
:10364000BFF34F8FBFF36F8F8CE72046FEF797FFD6
:1036500000F0C0FA86E72046FEF791FF00F0BAFAC4
:103660000020ADE72E2E5C2E2E5C4672656552540E
:103670004F535C7372635C71756575652E630000F2
:103680004572726F723A25732C25640D0A00000092
:1036900004ED00E02DE9F05F07468A4690461E469D
:1036A0003C462CB940F29F3231A138A0FDF706FD0F
:1036B000BAF1000F01D1206C08B9012000E0002010
:1036C00028B94FF468722AA130A0FDF7F7FC022E4A
:1036D00002D1E06B012801D1012000E0002028B9CF
:1036E00040F2A13222A129A0FDF7E8FCFFF7BCF9C6
:1036F00000BF5021EFF3118081F31188BFF34F8F8A
:10370000BFF36F8F00BF0546A06BE16B884201D30A
:10371000022E23D194F945B0324651462046FEF799
:103720007CFB0BF1010088B9606A08B9012000E058
:10373000002080B904F1240000F0EEF958B1B8F18E
:10374000000F08D00120C8F8000004E00BF10100D0
:1037500040B284F845004FF0010901E04FF0000944
:1037600000BF85F3118800BF4846BDE8F09F000008
:103770002E2E5C2E2E5C4672656552544F535C7340
:1037800072635C71756575652E6300004572726FBA
:10379000723A25732C25640D0A0000002DE9F041D2
:1037A00004460D462CB940F6CB3219A11FA0FDF7F7
:1037B00085FC2DB940F6CC3215A11CA0FDF77EFC8E
:1037C000FFF76AF81D4807682868401C08B90026FA
:1037D00019E01B4920680968884204D06068B84233
:1037E00001D801260FE06068381A2968884209D29A
:1037F00028686168791A401A28602046FFF746FB5E
:10380000002600E00126FFF78BF83046BDE8F08186
:103810002E2E5C2E2E5C4672656552544F535C739F
:1038200072635C7461736B732E6300004572726F18
:10383000723A25732C25640D0A0000004800002010
:103840005C0000202DE9FF4F85B080468946174671
:10385000DDE912ABB800FEF7D1FE064656B15420A2
:10386000FEF7CCFE04460CB1266304E03046FFF7B9
:103870008FF800E000247CB10020CDE900ABCDE959
:1038800002403A4649464046089BFEF787FB2046E1
:10389000FEF7F0F9012501E04FF0FF35284609B0A9
:1038A000BDE8F08F0549096809B9012005E0044920
:1038B000096809B9022000E000207047500000208C
:1038C0006C00002001490868704700004800002093
:1038D0002DE9F0414FF0000841480068002872D1FE
:1038E00040480068451C3F480560EDB93E48006807
:1038F000006808B9012000E0002028B940F6D9127C
:103900003AA141A0FDF7DAFB374807684248006852
:10391000354908604048076040480068401C3F49FE
:103920000860FEF755FD00BF3D48006885423CD366
:1039300000BF2D480068006808B9012000E00020A1
:1039400020B14FF0FF30364908602DE0264800686E
:10395000C068C4686668B54202D23148066023E098
:10396000201DFEF74FFFA06A18B104F11800FEF702
:1039700049FF94F82C10012088402A49096808431F
:1039800028490860E16A01EB8101274A02EB8100C6
:10399000211DFEF775FF2549E06A0968C96A88425A
:1039A000C7D34FF00108C4E700BF20480068C06AD1
:1039B00000EB80001C4951F82000012801D94FF08C
:1039C000010805E0FFE71A480068401C1849086034
:1039D0001848006808B14FF001084046BDE8F08182
:1039E0006C00002048000020380000202E2E5C2EA5
:1039F0002E5C4672656552544F535C7372635C74FF
:103A000061736B732E6300004572726F723A257397
:103A10002C25640D0A0000003C0000205C00002002
:103A2000640000204C000020089100203400002099
:103A3000540000205800002070B505462C46002692
:103A4000002D4BD026480068844201D1012000E0BF
:103A5000002028B940F6C76222A129A0FDF72EFB5D
:103A6000A06C28B940F6C9621EA125A0FDF726FB6F
:103A7000A06C401EA064616CE06A88422ED0A06CED
:103A800060BB201DFEF7BEFE78B9E06A00EB800047
:103A90001F4951F8200040B994F82C1001208840AB
:103AA0001C49096881431B480160606CE062E06A60
:103AB000C0F12000A06194F82C1001208840154925
:103AC0000968084313490860E16A01EB8101104A63
:103AD00002EB8100211DFEF7D3FE0126304670BDAA
:103AE000340000202E2E5C2E2E5C467265655254EA
:103AF0004F535C7372635C7461736B732E6300006D
:103B00004572726F723A25732C25640D0A0000000D
:103B1000089100204C00002070B50646F068C4688B
:103B20002CB940F661321AA120A0FDF7C7FA04F1C2
:103B30001800FEF767FE21480068A8B9201DFEF7AF
:103B400061FE94F82C10012088401D490968084343
:103B50001B490860E16A01EB81011A4A02EB81000E
:103B6000211DFEF78DFE04E004F118011648FEF752
:103B700087FE1649E06A0968C96A884204D90125A6
:103B800001201349086000E00025284670BD0000B0
:103B90002E2E5C2E2E5C4672656552544F535C731C
:103BA00072635C7461736B732E6300004572726F95
:103BB000723A25732C25640D0A0000006C00002069
:103BC0004C00002008910020B09300203400002019
:103BD0005800002070B5002400263448006828B939
:103BE0004FF4FD6232A139A0FDF768FAFEF754FEEA
:103BF0002E480068401E2D490860084600680028CD
:103C00004FD13648006800284BD024E03448C068C3
:103C1000C46804F11800FEF7F5FD201DFEF7F2FD63
:103C200094F82C10012088402E49096808432D493A
:103C30000860E16A01EB81012B4A02EB8100211D42
:103C4000FEF71EFE2949E06A0968C96A884202D364
:103C50000120274908602248006808B9012000E0D7
:103C600000200028D2D00CB1FEF7B2FB2148056835
:103C700065B100BFFFF72CFE10B101201C490860A0
:103C80006D1E002DF6D100201A4908601848006802
:103C900038B10126300718490860BFF34F8FBFF3D2
:103CA0006F8FFEF73DFE304670BD00006C000020B7
:103CB0002E2E5C2E2E5C4672656552544F535C73FB
:103CC00072635C7461736B732E6300004572726F74
:103CD000723A25732C25640D0A0000004400002070
:103CE000B09300204C0000200891002034000020F8
:103CF000580000205400002004ED00E01CB5002412
:103D0000FEF712F80B48006858B10B481F2100233A
:103D10004FF48072CDE9001008A10A48FFF792FD28
:103D200004462CB940F2331207A10EA0FDF7C6F9E4
:103D300020461CBD780000207C000020546D7220BD
:103D400053766300652500082E2E5C2E2E5C46728D
:103D5000656552544F535C7372635C74696D657230
:103D6000732E63004572726F723A25732C25640DB1
:103D70000A0000002DE9FE4304460D4616461F4684
:103D8000DDF828804FF000092CB94FF4D37216A14A
:103D90001CA0FDF793F91F48006810B30095019629
:103DA0000294062D15DAFFF77DFD022808D10023C5
:103DB0004246694617480068FFF796FB814610E0C7
:103DC00000231A46694613480068FFF78DFB8146B9
:103DD00007E000233A4669460E480068FFF75AFCA0
:103DE00081464846BDE8FE832E2E5C2E2E5C467230
:103DF000656552544F535C7372635C74696D657290
:103E0000732E63004572726F723A25732C25640D10
:103E10000A00000078000020383E00080000002062
:103E2000B8000000DC100008F03E0008B8000020D8
:103E3000909B0000EC100008000000000102030449
:103E4000010203040607080900000000000000004A
:103E50000000000000000000000000000000000062
:103E6000AAAAAAAA000000000000000000000000AA
:103E70000000000000000000000000000000000042
:103E80000000000000000000000000000000000032
:103E90000000000000000000000000000000000022
:103EA0000000000000000000000000000000000012
:103EB0000000000000000000000000000095BA0AA9
:103EC00000000000000000000102030406070809CA
:103ED00000000000000000000000000000000000E2
:103EE00000000000000000000000000000000000D2
:04000005080001AD41
:00000001FF
